{
  "contractName": "Energy",
  "abi": [
    {
      "inputs": [],
      "stateMutability": "nonpayable",
      "type": "constructor"
    },
    {
      "anonymous": false,
      "inputs": [
        {
          "indexed": true,
          "internalType": "address",
          "name": "producer",
          "type": "address"
        },
        {
          "indexed": true,
          "internalType": "uint32",
          "name": "day",
          "type": "uint32"
        },
        {
          "indexed": true,
          "internalType": "uint32",
          "name": "price",
          "type": "uint32"
        },
        {
          "indexed": false,
          "internalType": "uint64",
          "name": "energy",
          "type": "uint64"
        }
      ],
      "name": "BidMade",
      "type": "event"
    },
    {
      "anonymous": false,
      "inputs": [
        {
          "indexed": true,
          "internalType": "address",
          "name": "producer",
          "type": "address"
        },
        {
          "indexed": true,
          "internalType": "uint32",
          "name": "day",
          "type": "uint32"
        },
        {
          "indexed": true,
          "internalType": "uint32",
          "name": "price",
          "type": "uint32"
        },
        {
          "indexed": false,
          "internalType": "uint64",
          "name": "energy",
          "type": "uint64"
        }
      ],
      "name": "BidRevoked",
      "type": "event"
    },
    {
      "anonymous": false,
      "inputs": [
        {
          "indexed": true,
          "internalType": "address",
          "name": "producer",
          "type": "address"
        },
        {
          "indexed": true,
          "internalType": "uint32",
          "name": "day",
          "type": "uint32"
        },
        {
          "indexed": false,
          "internalType": "uint32",
          "name": "price",
          "type": "uint32"
        },
        {
          "indexed": false,
          "internalType": "uint64",
          "name": "energy",
          "type": "uint64"
        },
        {
          "indexed": true,
          "internalType": "uint32",
          "name": "userID",
          "type": "uint32"
        }
      ],
      "name": "Deal",
      "type": "event"
    },
    {
      "anonymous": false,
      "inputs": [
        {
          "indexed": true,
          "internalType": "address",
          "name": "producer",
          "type": "address"
        },
        {
          "indexed": true,
          "internalType": "uint32",
          "name": "day",
          "type": "uint32"
        },
        {
          "indexed": false,
          "internalType": "uint32",
          "name": "price",
          "type": "uint32"
        },
        {
          "indexed": false,
          "internalType": "uint64",
          "name": "energy",
          "type": "uint64"
        },
        {
          "indexed": true,
          "internalType": "uint32",
          "name": "userID",
          "type": "uint32"
        }
      ],
      "name": "DealRevoked",
      "type": "event"
    },
    {
      "anonymous": false,
      "inputs": [
        {
          "indexed": true,
          "internalType": "address",
          "name": "from",
          "type": "address"
        },
        {
          "indexed": true,
          "internalType": "address",
          "name": "to",
          "type": "address"
        },
        {
          "indexed": false,
          "internalType": "uint256",
          "name": "amount",
          "type": "uint256"
        }
      ],
      "name": "Transfer",
      "type": "event"
    },
    {
      "anonymous": false,
      "inputs": [
        {
          "indexed": true,
          "internalType": "address",
          "name": "consumer",
          "type": "address"
        }
      ],
      "name": "consumerDeregistered",
      "type": "event"
    },
    {
      "anonymous": false,
      "inputs": [
        {
          "indexed": true,
          "internalType": "address",
          "name": "consumer",
          "type": "address"
        }
      ],
      "name": "consumerRegistered",
      "type": "event"
    },
    {
      "anonymous": false,
      "inputs": [
        {
          "indexed": true,
          "internalType": "address",
          "name": "producer",
          "type": "address"
        }
      ],
      "name": "producerDeregistered",
      "type": "event"
    },
    {
      "anonymous": false,
      "inputs": [
        {
          "indexed": true,
          "internalType": "address",
          "name": "producer",
          "type": "address"
        }
      ],
      "name": "producerRegistered",
      "type": "event"
    },
    {
      "inputs": [
        {
          "internalType": "uint256",
          "name": "",
          "type": "uint256"
        }
      ],
      "name": "asks",
      "outputs": [
        {
          "internalType": "address",
          "name": "producer",
          "type": "address"
        },
        {
          "internalType": "uint32",
          "name": "day",
          "type": "uint32"
        },
        {
          "internalType": "uint32",
          "name": "price",
          "type": "uint32"
        },
        {
          "internalType": "uint64",
          "name": "energy",
          "type": "uint64"
        },
        {
          "internalType": "uint32",
          "name": "userID",
          "type": "uint32"
        },
        {
          "internalType": "uint64",
          "name": "timestamp",
          "type": "uint64"
        }
      ],
      "stateMutability": "view",
      "type": "function",
      "constant": true
    },
    {
      "inputs": [
        {
          "internalType": "uint32",
          "name": "",
          "type": "uint32"
        }
      ],
      "name": "asksIndex",
      "outputs": [
        {
          "internalType": "uint256",
          "name": "",
          "type": "uint256"
        }
      ],
      "stateMutability": "view",
      "type": "function",
      "constant": true
    },
    {
      "inputs": [
        {
          "internalType": "address",
          "name": "",
          "type": "address"
        }
      ],
      "name": "balances",
      "outputs": [
        {
          "internalType": "uint256",
          "name": "",
          "type": "uint256"
        }
      ],
      "stateMutability": "view",
      "type": "function",
      "constant": true
    },
    {
      "inputs": [
        {
          "internalType": "address",
          "name": "",
          "type": "address"
        }
      ],
      "name": "consumers",
      "outputs": [
        {
          "internalType": "uint32",
          "name": "",
          "type": "uint32"
        }
      ],
      "stateMutability": "view",
      "type": "function",
      "constant": true
    },
    {
      "inputs": [
        {
          "internalType": "address",
          "name": "",
          "type": "address"
        }
      ],
      "name": "producers",
      "outputs": [
        {
          "internalType": "uint256",
          "name": "",
          "type": "uint256"
        }
      ],
      "stateMutability": "view",
      "type": "function",
      "constant": true
    },
    {
      "inputs": [
        {
          "internalType": "address",
          "name": "aconsumer",
          "type": "address"
        },
        {
          "internalType": "uint32",
          "name": "auserID",
          "type": "uint32"
        },
        {
          "internalType": "uint256",
          "name": "buserEnergyBal",
          "type": "uint256"
        }
      ],
      "name": "registerConsumer",
      "outputs": [],
      "stateMutability": "nonpayable",
      "type": "function"
    },
    {
      "inputs": [
        {
          "internalType": "address",
          "name": "bproducer",
          "type": "address"
        },
        {
          "internalType": "uint256",
          "name": "buserID",
          "type": "uint256"
        },
        {
          "internalType": "uint256",
          "name": "buserEnergyBal",
          "type": "uint256"
        }
      ],
      "name": "registerProducer",
      "outputs": [],
      "stateMutability": "nonpayable",
      "type": "function"
    },
    {
      "inputs": [
        {
          "internalType": "address",
          "name": "bproducer",
          "type": "address"
        }
      ],
      "name": "deregisterProducer",
      "outputs": [],
      "stateMutability": "nonpayable",
      "type": "function"
    },
    {
      "inputs": [
        {
          "internalType": "uint32",
          "name": "aday",
          "type": "uint32"
        },
        {
          "internalType": "uint32",
          "name": "apriceMax",
          "type": "uint32"
        },
        {
          "internalType": "uint32",
          "name": "apriceMin",
          "type": "uint32"
        },
        {
          "internalType": "uint64",
          "name": "amaxenergy",
          "type": "uint64"
        },
        {
          "internalType": "uint64",
          "name": "aminenergy",
          "type": "uint64"
        },
        {
          "internalType": "uint64",
          "name": "atimestamp",
          "type": "uint64"
        }
      ],
      "name": "offer_energy",
      "outputs": [],
      "stateMutability": "nonpayable",
      "type": "function"
    },
    {
      "inputs": [
        {
          "internalType": "uint256",
          "name": "idx",
          "type": "uint256"
        }
      ],
      "name": "showBids",
      "outputs": [
        {
          "internalType": "address",
          "name": "producer",
          "type": "address"
        },
        {
          "internalType": "uint32",
          "name": "day",
          "type": "uint32"
        },
        {
          "internalType": "uint32",
          "name": "maxprice",
          "type": "uint32"
        },
        {
          "internalType": "uint64",
          "name": "energy",
          "type": "uint64"
        },
        {
          "internalType": "uint64",
          "name": "timestamp",
          "type": "uint64"
        }
      ],
      "stateMutability": "view",
      "type": "function",
      "constant": true
    },
    {
      "inputs": [
        {
          "internalType": "address",
          "name": "aproducer",
          "type": "address"
        },
        {
          "internalType": "uint32",
          "name": "aday",
          "type": "uint32"
        }
      ],
      "name": "getBidByProducerAndDay",
      "outputs": [
        {
          "internalType": "address",
          "name": "producer",
          "type": "address"
        },
        {
          "internalType": "uint32",
          "name": "day",
          "type": "uint32"
        },
        {
          "internalType": "uint32",
          "name": "maxprice",
          "type": "uint32"
        },
        {
          "internalType": "uint64",
          "name": "energy",
          "type": "uint64"
        },
        {
          "internalType": "uint64",
          "name": "timestamp",
          "type": "uint64"
        }
      ],
      "stateMutability": "view",
      "type": "function",
      "constant": true
    },
    {
      "inputs": [
        {
          "internalType": "uint32",
          "name": "idx",
          "type": "uint32"
        }
      ],
      "name": "getBidById",
      "outputs": [
        {
          "internalType": "address",
          "name": "producer",
          "type": "address"
        },
        {
          "internalType": "uint32",
          "name": "day",
          "type": "uint32"
        },
        {
          "internalType": "uint32",
          "name": "maxprice",
          "type": "uint32"
        },
        {
          "internalType": "uint64",
          "name": "energy",
          "type": "uint64"
        },
        {
          "internalType": "uint64",
          "name": "timestamp",
          "type": "uint64"
        }
      ],
      "stateMutability": "view",
      "type": "function",
      "constant": true
    },
    {
      "inputs": [
        {
          "internalType": "uint32",
          "name": "aday",
          "type": "uint32"
        }
      ],
      "name": "getMinPrice",
      "outputs": [
        {
          "internalType": "uint32",
          "name": "",
          "type": "uint32"
        }
      ],
      "stateMutability": "view",
      "type": "function",
      "constant": true
    },
    {
      "inputs": [],
      "name": "getBidsCount",
      "outputs": [
        {
          "internalType": "uint256",
          "name": "count",
          "type": "uint256"
        }
      ],
      "stateMutability": "view",
      "type": "function",
      "constant": true
    },
    {
      "inputs": [
        {
          "internalType": "address payable",
          "name": "aproducer",
          "type": "address"
        },
        {
          "internalType": "uint32",
          "name": "aday",
          "type": "uint32"
        },
        {
          "internalType": "uint32",
          "name": "aprice",
          "type": "uint32"
        },
        {
          "internalType": "uint64",
          "name": "aenergy",
          "type": "uint64"
        }
      ],
      "name": "buy_energy",
      "outputs": [],
      "stateMutability": "payable",
      "type": "function",
      "payable": true
    },
    {
      "inputs": [
        {
          "internalType": "address payable",
          "name": "_to",
          "type": "address"
        }
      ],
      "name": "sendEther",
      "outputs": [],
      "stateMutability": "payable",
      "type": "function",
      "payable": true
    },
    {
      "inputs": [],
      "name": "getAsksCount",
      "outputs": [
        {
          "internalType": "uint256",
          "name": "count",
          "type": "uint256"
        }
      ],
      "stateMutability": "view",
      "type": "function",
      "constant": true
    },
    {
      "inputs": [
        {
          "internalType": "uint32",
          "name": "userID",
          "type": "uint32"
        }
      ],
      "name": "getAskUserID",
      "outputs": [
        {
          "internalType": "address",
          "name": "producer",
          "type": "address"
        },
        {
          "internalType": "uint32",
          "name": "day",
          "type": "uint32"
        },
        {
          "internalType": "uint32",
          "name": "price",
          "type": "uint32"
        },
        {
          "internalType": "uint64",
          "name": "energy",
          "type": "uint64"
        }
      ],
      "stateMutability": "view",
      "type": "function",
      "constant": true
    }
  ],
  "bytecode": "0x608060405234801561001057600080fd5b50336000806101000a81548173ffffffffffffffffffffffffffffffffffffffff021916908373ffffffffffffffffffffffffffffffffffffffff1602179055506127ff806100606000396000f3fe6080604052600436106101095760003560e01c806363505ae811610095578063bbae30c911610064578063bbae30c9146103a9578063bc7cf830146103e6578063e45375ae1461040f578063e4646f5b14610450578063fbf3ebe01461047957610109565b806363505ae8146103105780639ed81bc91461033b578063a64276b514610364578063a77674a71461038d57610109565b806326324eff116100dc57806326324eff1461020e57806327c166051461024b57806327e235e31461028c57806348c981e2146102c957806354290065146102e557610109565b80630b0c14931461010e5780630bf536681461015057806310663fc81461018d5780631c032ebf146101ce575b600080fd5b34801561011a57600080fd5b50610135600480360381019061013091906120cd565b6104b6565b6040516101479695949392919061217d565b60405180910390f35b34801561015c57600080fd5b506101776004803603810190610172919061220a565b61057a565b6040516101849190612237565b60405180910390f35b34801561019957600080fd5b506101b460048036038101906101af91906120cd565b61059d565b6040516101c5959493929190612252565b60405180910390f35b3480156101da57600080fd5b506101f560048036038101906101f091906122d1565b6106de565b60405161020594939291906122fe565b60405180910390f35b34801561021a57600080fd5b506102356004803603810190610230919061220a565b610851565b6040516102429190612352565b60405180910390f35b34801561025757600080fd5b50610272600480360381019061026d919061236d565b610869565b604051610283959493929190612252565b60405180910390f35b34801561029857600080fd5b506102b360048036038101906102ae919061220a565b610a0c565b6040516102c09190612352565b60405180910390f35b6102e360048036038101906102de91906123eb565b610a24565b005b3480156102f157600080fd5b506102fa610b7f565b6040516103079190612352565b60405180910390f35b34801561031c57600080fd5b50610325610b8c565b6040516103329190612352565b60405180910390f35b34801561034757600080fd5b50610362600480360381019061035d919061220a565b610b99565b005b34801561037057600080fd5b5061038b60048036038101906103869190612444565b610c7a565b005b6103a760048036038101906103a291906124d1565b6113d1565b005b3480156103b557600080fd5b506103d060048036038101906103cb91906122d1565b611497565b6040516103dd9190612352565b60405180910390f35b3480156103f257600080fd5b5061040d60048036038101906104089190612538565b6114af565b005b34801561041b57600080fd5b50610436600480360381019061043191906122d1565b611648565b604051610447959493929190612252565b60405180910390f35b34801561045c57600080fd5b506104776004803603810190610472919061258b565b6117a7565b005b34801561048557600080fd5b506104a0600480360381019061049b91906122d1565b6118dc565b6040516104ad9190612237565b60405180910390f35b600581815481106104c657600080fd5b90600052602060002090600202016000915090508060000160009054906101000a900473ffffffffffffffffffffffffffffffffffffffff16908060000160149054906101000a900463ffffffff16908060000160189054906101000a900463ffffffff16908060010160009054906101000a900467ffffffffffffffff16908060010160089054906101000a900463ffffffff169080600101600c9054906101000a900467ffffffffffffffff16905086565b60016020528060005260406000206000915054906101000a900463ffffffff1681565b6000806000806000600486815481106105b9576105b86125de565b5b906000526020600020906002020160000160009054906101000a900473ffffffffffffffffffffffffffffffffffffffff16600487815481106105ff576105fe6125de565b5b906000526020600020906002020160000160149054906101000a900463ffffffff1660048881548110610635576106346125de565b5b906000526020600020906002020160000160189054906101000a900463ffffffff166004898154811061066b5761066a6125de565b5b906000526020600020906002020160010160009054906101000a900467ffffffffffffffff1660048a815481106106a5576106a46125de565b5b906000526020600020906002020160010160109054906101000a900467ffffffffffffffff169450945094509450945091939590929450565b6000806000806000600760008763ffffffff1663ffffffff1681526020019081526020016000205490508563ffffffff1660058281548110610723576107226125de565b5b906000526020600020906002020160010160089054906101000a900463ffffffff1663ffffffff161461075557600080fd5b60058181548110610769576107686125de565b5b906000526020600020906002020160000160009054906101000a900473ffffffffffffffffffffffffffffffffffffffff16600582815481106107af576107ae6125de565b5b906000526020600020906002020160000160149054906101000a900463ffffffff16600583815481106107e5576107e46125de565b5b906000526020600020906002020160000160189054906101000a900463ffffffff166005848154811061081b5761081a6125de565b5b906000526020600020906002020160010160009054906101000a900467ffffffffffffffff169450945094509450509193509193565b60026020528060005260406000206000915090505481565b600080600080600080600660008973ffffffffffffffffffffffffffffffffffffffff1673ffffffffffffffffffffffffffffffffffffffff16815260200190815260200160002060008863ffffffff1663ffffffff168152602001908152602001600020549050600481815481106108e5576108e46125de565b5b906000526020600020906002020160000160009054906101000a900473ffffffffffffffffffffffffffffffffffffffff166004828154811061092b5761092a6125de565b5b906000526020600020906002020160000160149054906101000a900463ffffffff1660048381548110610961576109606125de565b5b906000526020600020906002020160000160189054906101000a900463ffffffff1660048481548110610997576109966125de565b5b906000526020600020906002020160010160009054906101000a900467ffffffffffffffff16600485815481106109d1576109d06125de565b5b906000526020600020906002020160010160109054906101000a900467ffffffffffffffff1695509550955095509550509295509295909350565b60086020528060005260406000206000915090505481565b8073ffffffffffffffffffffffffffffffffffffffff166108fc349081150290604051600060405180830381858888f19350505050158015610a6a573d6000803e3d6000fd5b5034600860003373ffffffffffffffffffffffffffffffffffffffff1673ffffffffffffffffffffffffffffffffffffffff1681526020019081526020016000206000828254610aba919061263c565b9250508190555034600860008373ffffffffffffffffffffffffffffffffffffffff1673ffffffffffffffffffffffffffffffffffffffff1681526020019081526020016000206000828254610b109190612670565b925050819055508073ffffffffffffffffffffffffffffffffffffffff163373ffffffffffffffffffffffffffffffffffffffff167fddf252ad1be2c89b69c2b068fc378daa952ba7f163c4a11628f55a4df523b3ef34604051610b749190612352565b60405180910390a350565b6000600580549050905090565b6000600480549050905090565b60008054906101000a900473ffffffffffffffffffffffffffffffffffffffff1673ffffffffffffffffffffffffffffffffffffffff163373ffffffffffffffffffffffffffffffffffffffff1614610bf157600080fd5b8073ffffffffffffffffffffffffffffffffffffffff167f0bb6d68f109745f7ae353e3b90fff6fb8245c34cca44f18d9dfa00e4d705fa6460405160405180910390a2600260008273ffffffffffffffffffffffffffffffffffffffff1673ffffffffffffffffffffffffffffffffffffffff1681526020019081526020016000206000905550565b6000600260003373ffffffffffffffffffffffffffffffffffffffff1673ffffffffffffffffffffffffffffffffffffffff1681526020019081526020016000205411610cc657600080fd5b60016103e8610cd591906126c6565b6103e8610ce291906126c6565b67ffffffffffffffff168267ffffffffffffffff161015610d0257600080fd5b8267ffffffffffffffff16600360003373ffffffffffffffffffffffffffffffffffffffff1673ffffffffffffffffffffffffffffffffffffffff168152602001908152602001600020541015610d5857600080fd5b6000600660003373ffffffffffffffffffffffffffffffffffffffff1673ffffffffffffffffffffffffffffffffffffffff16815260200190815260200160002060008863ffffffff1663ffffffff16815260200190815260200160002054905080600480549050118015610e3d57503373ffffffffffffffffffffffffffffffffffffffff1660048281548110610df357610df26125de565b5b906000526020600020906002020160000160009054906101000a900473ffffffffffffffffffffffffffffffffffffffff1673ffffffffffffffffffffffffffffffffffffffff16145b8015610e8957508663ffffffff1660048281548110610e5f57610e5e6125de565b5b906000526020600020906002020160000160149054906101000a900463ffffffff1663ffffffff16145b1561102c5760048181548110610ea257610ea16125de565b5b906000526020600020906002020160010160109054906101000a900467ffffffffffffffff1667ffffffffffffffff168267ffffffffffffffff1611610ee757600080fd5b60048181548110610efb57610efa6125de565b5b906000526020600020906002020160000160189054906101000a900463ffffffff1663ffffffff1660048281548110610f3757610f366125de565b5b906000526020600020906002020160000160149054906101000a900463ffffffff1663ffffffff1660048381548110610f7357610f726125de565b5b906000526020600020906002020160000160009054906101000a900473ffffffffffffffffffffffffffffffffffffffff1673ffffffffffffffffffffffffffffffffffffffff167f664a04e305e35425afb90c28227063c0b0b433a97155f2492f415af0bd4fea3460048581548110610ff057610fef6125de565b5b906000526020600020906002020160010160009054906101000a900467ffffffffffffffff166040516110239190612708565b60405180910390a45b600480549050905080600660003373ffffffffffffffffffffffffffffffffffffffff1673ffffffffffffffffffffffffffffffffffffffff16815260200190815260200160002060008963ffffffff1663ffffffff1681526020019081526020016000208190555060046040518060e001604052803373ffffffffffffffffffffffffffffffffffffffff1681526020018963ffffffff1681526020018863ffffffff1681526020018763ffffffff1681526020018667ffffffffffffffff1681526020018567ffffffffffffffff1681526020018467ffffffffffffffff16815250908060018154018082558091505060019003906000526020600020906002020160009091909190915060008201518160000160006101000a81548173ffffffffffffffffffffffffffffffffffffffff021916908373ffffffffffffffffffffffffffffffffffffffff16021790555060208201518160000160146101000a81548163ffffffff021916908363ffffffff16021790555060408201518160000160186101000a81548163ffffffff021916908363ffffffff160217905550606082015181600001601c6101000a81548163ffffffff021916908363ffffffff16021790555060808201518160010160006101000a81548167ffffffffffffffff021916908367ffffffffffffffff16021790555060a08201518160010160086101000a81548167ffffffffffffffff021916908367ffffffffffffffff16021790555060c08201518160010160106101000a81548167ffffffffffffffff021916908367ffffffffffffffff160217905550505060048181548110611298576112976125de565b5b906000526020600020906002020160000160189054906101000a900463ffffffff1663ffffffff16600482815481106112d4576112d36125de565b5b906000526020600020906002020160000160149054906101000a900463ffffffff1663ffffffff16600483815481106113105761130f6125de565b5b906000526020600020906002020160000160009054906101000a900473ffffffffffffffffffffffffffffffffffffffff1673ffffffffffffffffffffffffffffffffffffffff167f35c89b54d5468d95ecdd889b5dcd7245be0bee1a5dfbe384adc4e8f547f31fd76004858154811061138d5761138c6125de565b5b906000526020600020906002020160010160009054906101000a900467ffffffffffffffff166040516113c09190612708565b60405180910390a450505050505050565b6000600160003373ffffffffffffffffffffffffffffffffffffffff1673ffffffffffffffffffffffffffffffffffffffff16815260200190815260200160002060009054906101000a900463ffffffff1663ffffffff161161143357600080fd5b61149184848484600160003373ffffffffffffffffffffffffffffffffffffffff1673ffffffffffffffffffffffffffffffffffffffff16815260200190815260200160002060009054906101000a900463ffffffff1660006119c8565b50505050565b60076020528060005260406000206000915090505481565b60008054906101000a900473ffffffffffffffffffffffffffffffffffffffff1673ffffffffffffffffffffffffffffffffffffffff163373ffffffffffffffffffffffffffffffffffffffff161461150757600080fd5b80600360008573ffffffffffffffffffffffffffffffffffffffff1673ffffffffffffffffffffffffffffffffffffffff1681526020019081526020016000208190555060008263ffffffff16146115a1578273ffffffffffffffffffffffffffffffffffffffff167faba09d491d88bf0ee0f8fc8f0168c0178e7210f18b5f524e052a72f550c4474a60405160405180910390a26115e5565b8273ffffffffffffffffffffffffffffffffffffffff167ffa23c8d074a5c45120a1bac6ecf198fd3fa6f45dabe40a18dfa423f69d52c30c60405160405180910390a25b81600160008573ffffffffffffffffffffffffffffffffffffffff1673ffffffffffffffffffffffffffffffffffffffff16815260200190815260200160002060006101000a81548163ffffffff021916908363ffffffff160217905550505050565b600080600080600060048663ffffffff168154811061166a576116696125de565b5b906000526020600020906002020160000160009054906101000a900473ffffffffffffffffffffffffffffffffffffffff1660048763ffffffff16815481106116b6576116b56125de565b5b906000526020600020906002020160000160149054906101000a900463ffffffff1660048863ffffffff16815481106116f2576116f16125de565b5b906000526020600020906002020160000160189054906101000a900463ffffffff1660048963ffffffff168154811061172e5761172d6125de565b5b906000526020600020906002020160010160009054906101000a900467ffffffffffffffff1660048a63ffffffff168154811061176e5761176d6125de565b5b906000526020600020906002020160010160109054906101000a900467ffffffffffffffff169450945094509450945091939590929450565b60008054906101000a900473ffffffffffffffffffffffffffffffffffffffff1673ffffffffffffffffffffffffffffffffffffffff163373ffffffffffffffffffffffffffffffffffffffff16146117ff57600080fd5b8273ffffffffffffffffffffffffffffffffffffffff167f769268709e630d5b24d4c651adeae2d7a75c3dd7c3876275233e21570be22fd460405160405180910390a26000821161184f57600080fd5b81600260008573ffffffffffffffffffffffffffffffffffffffff1673ffffffffffffffffffffffffffffffffffffffff1681526020019081526020016000208190555080600360008573ffffffffffffffffffffffffffffffffffffffff1673ffffffffffffffffffffffffffffffffffffffff16815260200190815260200160002081905550505050565b600080600260003373ffffffffffffffffffffffffffffffffffffffff1673ffffffffffffffffffffffffffffffffffffffff168152602001908152602001600020541161192957600080fd5b6000600660003373ffffffffffffffffffffffffffffffffffffffff1673ffffffffffffffffffffffffffffffffffffffff16815260200190815260200160002060008463ffffffff1663ffffffff1681526020019081526020016000205490506004818154811061199e5761199d6125de565b5b9060005260206000209060020201600001601c9054906101000a900463ffffffff16915050919050565b6000600660008873ffffffffffffffffffffffffffffffffffffffff1673ffffffffffffffffffffffffffffffffffffffff16815260200190815260200160002060008763ffffffff1663ffffffff16815260200190815260200160002054905080600480549050118015611aad57508673ffffffffffffffffffffffffffffffffffffffff1660048281548110611a6357611a626125de565b5b906000526020600020906002020160000160009054906101000a900473ffffffffffffffffffffffffffffffffffffffff1673ffffffffffffffffffffffffffffffffffffffff16145b8015611af957508563ffffffff1660048281548110611acf57611ace6125de565b5b906000526020600020906002020160000160149054906101000a900463ffffffff1663ffffffff16145b15612084578463ffffffff1660048281548110611b1957611b186125de565b5b906000526020600020906002020160000160189054906101000a900463ffffffff1663ffffffff1610158015611b9057508463ffffffff1660048281548110611b6557611b646125de565b5b9060005260206000209060020201600001601c9054906101000a900463ffffffff1663ffffffff1611155b611b9957600080fd5b8367ffffffffffffffff1660048281548110611bb857611bb76125de565b5b906000526020600020906002020160010160009054906101000a900467ffffffffffffffff1667ffffffffffffffff1610158015611c3b57508367ffffffffffffffff1660048281548110611c1057611c0f6125de565b5b9060005260206000209060020201600001601c9054906101000a900463ffffffff1663ffffffff1611155b611c4457600080fd5b600580549050600760008563ffffffff1663ffffffff1681526020019081526020016000208190555060056040518060c001604052808973ffffffffffffffffffffffffffffffffffffffff1681526020018863ffffffff1681526020018763ffffffff1681526020018667ffffffffffffffff1681526020018563ffffffff1681526020018467ffffffffffffffff16815250908060018154018082558091505060019003906000526020600020906002020160009091909190915060008201518160000160006101000a81548173ffffffffffffffffffffffffffffffffffffffff021916908373ffffffffffffffffffffffffffffffffffffffff16021790555060208201518160000160146101000a81548163ffffffff021916908363ffffffff16021790555060408201518160000160186101000a81548163ffffffff021916908363ffffffff16021790555060608201518160010160006101000a81548167ffffffffffffffff021916908367ffffffffffffffff16021790555060808201518160010160086101000a81548163ffffffff021916908363ffffffff16021790555060a082015181600101600c6101000a81548167ffffffffffffffff021916908367ffffffffffffffff16021790555050508263ffffffff168663ffffffff168873ffffffffffffffffffffffffffffffffffffffff167f1d809c14ce26d314cb611c6eb2d07dcbce4c1a76cfea828af40737b78dcb60708888604051611e73929190612723565b60405180910390a46000600360003373ffffffffffffffffffffffffffffffffffffffff1673ffffffffffffffffffffffffffffffffffffffff1681526020019081526020016000205490508467ffffffffffffffff16600360008a73ffffffffffffffffffffffffffffffffffffffff1673ffffffffffffffffffffffffffffffffffffffff1681526020019081526020016000206000828254611f18919061263c565b925050819055508467ffffffffffffffff16600360003373ffffffffffffffffffffffffffffffffffffffff1673ffffffffffffffffffffffffffffffffffffffff1681526020019081526020016000206000828254611f789190612670565b925050819055508467ffffffffffffffff1681600360003373ffffffffffffffffffffffffffffffffffffffff1673ffffffffffffffffffffffffffffffffffffffff16815260200190815260200160002054611fd5919061263c565b14612015576040517f08c379a000000000000000000000000000000000000000000000000000000000815260040161200c906127a9565b60405180910390fd5b61201e88610a24565b600660008973ffffffffffffffffffffffffffffffffffffffff1673ffffffffffffffffffffffffffffffffffffffff16815260200190815260200160002060008863ffffffff1663ffffffff1681526020019081526020016000206000905550612089565b600080fd5b50505050505050565b600080fd5b6000819050919050565b6120aa81612097565b81146120b557600080fd5b50565b6000813590506120c7816120a1565b92915050565b6000602082840312156120e3576120e2612092565b5b60006120f1848285016120b8565b91505092915050565b600073ffffffffffffffffffffffffffffffffffffffff82169050919050565b6000612125826120fa565b9050919050565b6121358161211a565b82525050565b600063ffffffff82169050919050565b6121548161213b565b82525050565b600067ffffffffffffffff82169050919050565b6121778161215a565b82525050565b600060c082019050612192600083018961212c565b61219f602083018861214b565b6121ac604083018761214b565b6121b9606083018661216e565b6121c6608083018561214b565b6121d360a083018461216e565b979650505050505050565b6121e78161211a565b81146121f257600080fd5b50565b600081359050612204816121de565b92915050565b6000602082840312156122205761221f612092565b5b600061222e848285016121f5565b91505092915050565b600060208201905061224c600083018461214b565b92915050565b600060a082019050612267600083018861212c565b612274602083018761214b565b612281604083018661214b565b61228e606083018561216e565b61229b608083018461216e565b9695505050505050565b6122ae8161213b565b81146122b957600080fd5b50565b6000813590506122cb816122a5565b92915050565b6000602082840312156122e7576122e6612092565b5b60006122f5848285016122bc565b91505092915050565b6000608082019050612313600083018761212c565b612320602083018661214b565b61232d604083018561214b565b61233a606083018461216e565b95945050505050565b61234c81612097565b82525050565b60006020820190506123676000830184612343565b92915050565b6000806040838503121561238457612383612092565b5b6000612392858286016121f5565b92505060206123a3858286016122bc565b9150509250929050565b60006123b8826120fa565b9050919050565b6123c8816123ad565b81146123d357600080fd5b50565b6000813590506123e5816123bf565b92915050565b60006020828403121561240157612400612092565b5b600061240f848285016123d6565b91505092915050565b6124218161215a565b811461242c57600080fd5b50565b60008135905061243e81612418565b92915050565b60008060008060008060c0878903121561246157612460612092565b5b600061246f89828a016122bc565b965050602061248089828a016122bc565b955050604061249189828a016122bc565b94505060606124a289828a0161242f565b93505060806124b389828a0161242f565b92505060a06124c489828a0161242f565b9150509295509295509295565b600080600080608085870312156124eb576124ea612092565b5b60006124f9878288016123d6565b945050602061250a878288016122bc565b935050604061251b878288016122bc565b925050606061252c8782880161242f565b91505092959194509250565b60008060006060848603121561255157612550612092565b5b600061255f868287016121f5565b9350506020612570868287016122bc565b9250506040612581868287016120b8565b9150509250925092565b6000806000606084860312156125a4576125a3612092565b5b60006125b2868287016121f5565b93505060206125c3868287016120b8565b92505060406125d4868287016120b8565b9150509250925092565b7f4e487b7100000000000000000000000000000000000000000000000000000000600052603260045260246000fd5b7f4e487b7100000000000000000000000000000000000000000000000000000000600052601160045260246000fd5b600061264782612097565b915061265283612097565b9250828210156126655761266461260d565b5b828203905092915050565b600061267b82612097565b915061268683612097565b9250827fffffffffffffffffffffffffffffffffffffffffffffffffffffffffffffffff038211156126bb576126ba61260d565b5b828201905092915050565b60006126d18261215a565b91506126dc8361215a565b92508167ffffffffffffffff04831182151516156126fd576126fc61260d565b5b828202905092915050565b600060208201905061271d600083018461216e565b92915050565b6000604082019050612738600083018561214b565b612745602083018461216e565b9392505050565b600082825260208201905092915050565b7f456e65726779206973206e6f74207472616e7366657265642079657400000000600082015250565b6000612793601c8361274c565b915061279e8261275d565b602082019050919050565b600060208201905081810360008301526127c281612786565b905091905056fea264697066735822122004362508b2f27cecbefcf43cb60d528428d3a2a9cb1d8e0dc588611bc3318ba364736f6c634300080d0033",
  "immutableReferences": {},
  "source": "//SPDX-License-Identifier:GPL-3.0\r\npragma solidity ^0.8.13;\r\n\r\ncontract Energy {\r\nconstructor() { owner = msg. sender; }\r\naddress owner;\r\nmodifier onlyOwner {\r\n\trequire(msg.sender == owner);\r\n\t_;\r\n}\r\n\r\n\r\nevent consumerRegistered(address indexed consumer);\r\nevent consumerDeregistered (address indexed consumer);\r\n\r\n// map address to userID\r\nmapping(address => uint32) public consumers;\r\n\r\nmodifier onlyRegisteredConsumers {\r\nrequire (consumers[msg. sender] > 0);\r\n_;\r\n}\r\n\r\n//I Allowed the owner of the address aconsumer.address()\r\n//to make transactions on behalf of user id \"auserID*\r\n//Register address aconsumer to belong to userID\r\n//auserID. Addresses can be delisted (\"unregistered\") by \r\n//setting the userID auserID to zero.\r\nfunction registerConsumer (address aconsumer, uint32 auserID, uint buserEnergyBal) onlyOwner external {\r\n/////////\\\\\\\\\\\\\\\r\nuserEnergyBal [aconsumer] = buserEnergyBal;///////////\\\\\\\\\\\\\\\\\\\\\r\n/////////\\\\\\\\\\\\\\\\\r\nif (auserID != 0) {\r\nemit consumerRegistered(aconsumer);\r\n} else {\r\nemit consumerDeregistered (aconsumer);\r\n}\r\nconsumers [aconsumer] = auserID;\r\n}\r\n\r\n// A contract that allows producer addresses to be registered.\r\n\r\nevent producerRegistered(address indexed producer);//44\r\nevent producerDeregistered (address indexed producer);\r\n//map address to producerID \"is a registered producer\" \r\nmapping(address => uint) public producers;////////////\r\nmapping(address => uint) internal userEnergyBal;/////////////\r\n\r\nmodifier onlyRegisteredProducers {\r\nrequire (producers[msg. sender]>0);\r\n_;\r\n}\r\n//// @notice Allow the owner of address aproducer.(address) to\r\n//act as a producer (by offering energy).\r\nfunction registerProducer(address bproducer,uint buserID, uint buserEnergyBal) onlyOwner external {\r\nemit producerRegistered(bproducer);\r\nrequire(buserID>0);//////////////\r\nproducers [bproducer] = buserID;///////////\r\n/////////\\\\\\\\\\\\\\\r\nuserEnergyBal [bproducer] = buserEnergyBal;///////////\\\\\\\\\\\\\\\\\\\\\r\n/////////\\\\\\\\\\\\\\\\\r\n////@note ID can not be zero\r\n}\r\n\r\n////@notice Cease alLowing the owner of address\r\n//aproducer. Address()' to act as a producer (by offering energy).\r\nfunction deregisterProducer (address bproducer) onlyOwner external {\r\nemit producerDeregistered(bproducer);\r\ndelete(producers[bproducer]);////////////\r\n}\r\n\r\n\r\nevent BidMade(address indexed producer, uint32 indexed day, uint32 indexed price, uint64 energy); \r\nevent BidRevoked (address indexed producer, uint32 indexed day, uint32 indexed price, uint64 energy);\r\nevent Deal (address indexed producer, uint32 indexed day, uint32 price, uint64 energy, uint32 indexed userID);\r\nevent DealRevoked (address indexed producer, uint32 indexed day, uint32 price, uint64 energy, uint32 indexed userID); //77\r\n\r\n//78\r\nuint64 constant mWh = 1;\r\nuint64 constant Wh = 1000*mWh;\r\nuint64 constant kWh = 1000 * Wh;\r\nuint64 constant MWh = 1000 * kWh;\r\nuint64 constant GWh = 1000 * MWh;\r\nuint64 constant TWh = 1000 * GWh;\r\nuint64 constant maxEnergy = 18446 * GWh;\r\n\r\nstruct Bid {\r\n    //producer's public key\r\n    address producer;\r\n    \r\n    //day for which the offer is valid\r\n    uint32 day;\r\n\r\n     //price vs market price\r\n     uint32 maxprice;\r\n     uint32 minprice;\r\n\r\n     //energy to sell\r\n     uint64 maxenergy;\r\n     uint64 minenergy;\r\n\r\n     //timestamp for when the offer was submitted\r\n     uint64 timestamp;\r\n}\r\n\r\nstruct Ask {\r\n    address producer;\r\n    uint32 day; \r\n    uint32 price; \r\n    uint64 energy; \r\n    uint32 userID; \r\n    uint64 timestamp;\r\n}\r\n\r\n//bids (for energy: offering energy for sale)\r\nBid[] private bids;\r\n\r\n//asks (for energy: demanding energy to buy)\r\nAsk[] public asks;\r\n\r\n//map (address, day) to index into bids \r\n//maps a producer's public key and the day for which the offer is valid \r\n//to the index of the corresponding Bid object in the bids array.\r\nmapping (address => mapping(uint32 => uint)) private bidsIndex;\r\n\r\n//map (userid) to index into asks [last take written]\r\n//maps a user ID to the index of the corresponding Ask object in the asks array.\r\nmapping (uint32 => uint) public asksIndex;\r\n\r\n//aday Day for which the offer is valid.\r\n//aprice price surcharge in millicent/kwh above market price\r\n//aenergy Energy to be offered in mwh\r\n//atimestamp UNIX time (seconds since 1970) in nanoseconds\r\nfunction offer_energy (uint32 aday, uint32 apriceMax, uint32 apriceMin, uint64 amaxenergy, uint64 aminenergy, uint64 atimestamp) onlyRegisteredProducers external {\r\n//require a minimum offer of 1 kWh\r\nrequire (aminenergy >= kWh);\r\n///////\\\\\\\\\\\r\nrequire (userEnergyBal[msg.sender]>=amaxenergy);///////////\\\\\\\\\\\\\\\\\\\\\r\n///////\\\\\\\\\\\\\r\n\r\nuint idx = bidsIndex[msg.sender][aday];\r\n//idx is either 0 or such that bids[idx] has the right producer and day (or both 0 and...) \r\n\r\n//if the bids array's length is greater than index number and the address at that index is a producer\r\n//and the day the address bid \r\nif ((bids.length > idx) && (bids[idx].producer == msg.sender) && (bids[idx].day == aday))\r\n{\r\n//we will only let newer timestamps affect the stored data i.e. unix timestamp\r\nrequire(atimestamp > bids[idx].timestamp);\r\nemit BidRevoked(bids[idx].producer, bids[idx].day, bids[idx].maxprice, bids[idx].maxenergy);\r\n}\r\n// create entry with new index idx for (msg. sender, aday)\r\nidx = bids.length;////by this the mapping index starts from 1 not zero\r\nbidsIndex[msg.sender][aday] = idx;\r\nbids.push(Bid({\r\n    producer: msg.sender, \r\n    day: aday, \r\n    maxprice: apriceMax,\r\n    minprice: apriceMin,\r\n    minenergy: aminenergy,\r\n    maxenergy: amaxenergy, \r\n    timestamp: atimestamp\r\n}));\r\nemit BidMade(bids[idx].producer, bids[idx].day, bids[idx].maxprice, bids[idx].maxenergy) ;\r\n}\r\n\r\n//can see the bids by giving the index number of the bids array\r\nfunction showBids(uint idx) public view returns (address producer,uint32 day,uint32 maxprice,uint64 energy,uint64 timestamp){\r\n    return (bids[idx].producer, bids[idx].day, bids[idx].maxprice, bids[idx].maxenergy, bids[idx].timestamp) ;\r\n}\r\n\r\n//can get the bids by giving the address and day\r\n// Anyone call this function, he'll retrieve all data without minimum price value.\r\nfunction getBidByProducerAndDay(address aproducer, uint32 aday) external view returns(address producer,uint32 day,uint32 maxprice,uint64 energy,uint64 timestamp) {\r\n    uint idx = bidsIndex[aproducer][aday];\r\n    return (bids[idx].producer, bids[idx].day, bids[idx].maxprice, bids[idx].maxenergy, bids[idx].timestamp) ;\r\n}\r\n\r\nfunction getBidById(uint32 idx) external view returns(address producer,uint32 day,uint32 maxprice,uint64 energy,uint64 timestamp){\r\n    return (bids[idx].producer, bids[idx].day, bids[idx].maxprice, bids[idx].maxenergy, bids[idx].timestamp) ;\r\n}\r\n\r\n//the minimum value of any bid can be seen by a producer\r\n// Restrict access only producer to access the minimum price of a specific address in a mapping\r\nfunction getMinPrice(uint32 aday) onlyRegisteredProducers external view returns(uint32) {\r\n    uint idx = bidsIndex[msg.sender][aday];\r\n    return (bids[idx].minprice);\r\n}\r\n\r\nfunction getBidsCount () external view returns (uint count) {\r\nreturn bids.length;\r\n}\r\n\r\n/////////////////\r\n// called by the user id provided by the owner and called by owner on behalf pf consumer\r\n// function buy_energy (address aproducer, uint32 aday, uint32 aprice, uint64 aenergy, uint32 auserID, uint64 atimestamp) onlyOwner external{\r\n// buy_energy_core(aproducer, aday, aprice, aenergy, auserID, atimestamp);\r\n// }\r\n////////////////\r\n\r\n//// aproducer Address of the producer offering the energy\r\n///to be bought.\r\n///aday Day for which the offer is valid.\r\n/// aprice Price surcharge in millicent/kwh above market\r\n////price\r\n////aenergy Energy to be offered in mwh\r\n\r\n//called by the id that is got from the consumers map and called by the consumer itself\r\n\r\n\r\nfunction buy_energy (address payable aproducer, uint32 aday, uint32 aprice, uint64 aenergy) onlyRegisteredConsumers external payable {\r\nbuy_energy_core(aproducer, aday, aprice, aenergy, consumers[msg. sender], 0);\r\n}\r\n\r\nfunction buy_energy_core(address payable aproducer, uint32 aday, uint32 aprice, uint64 aenergy, uint32 auserID, uint64 atimestamp) internal {\r\n//find offer by producer (aproducer) for day (aday), or zero\r\nuint idx = bidsIndex[aproducer][aday];\r\n\r\n//if the offer exists...\r\nif ((bids.length > idx) && (bids [idx].producer == aproducer) && (bids [idx].day == aday)) {\r\n//and has the right price...\r\nrequire(bids[idx].maxprice >=aprice && bids[idx].minprice<=aprice);\r\nrequire(bids[idx].maxenergy >=aenergy && bids[idx].minprice<=aenergy);\r\n\r\n// todo: prevent overwriting a later choice..\r\n\r\n//...then record the customer's choice\r\nasksIndex[auserID] = asks.length;//by this the mapping index starts from 1 not zero\r\nasks.push(Ask({\r\nproducer: aproducer, \r\nday: aday, \r\nprice: aprice, \r\nenergy: aenergy, \r\nuserID: auserID,\r\ntimestamp: atimestamp\r\n}));\r\nemit Deal (aproducer, aday, aprice, aenergy, auserID);\r\n///////////////\r\n// address payable payableRecipient = payable(aproducer);\r\n// payable(payableRecipient).transfer(10);\r\n\r\n/////\\\\\\\\\\\r\nuint256 beforeBal = userEnergyBal [msg.sender];\r\nuserEnergyBal[aproducer] -= aenergy;///////////\\\\\\\\\\\\\\\\\\\\\r\nuserEnergyBal [msg.sender] += aenergy;\r\nrequire(userEnergyBal[msg.sender]-beforeBal==aenergy,\"Energy is not transfered yet\");\r\n/////\\\\\\\\\\\\\\\r\n\r\nsendEther(aproducer);\r\n\r\n//////////////////////\r\ndelete(bidsIndex[aproducer][aday]);\r\n} else {\r\n//the offer does not exist\r\nrevert();\r\n}\r\n}\r\n\r\n//receive() external payable {}\r\n\r\nmapping(address => uint) public balances;\r\n\r\nevent Transfer(address indexed from, address indexed to, uint amount);\r\n\r\nfunction sendEther(address payable _to) public payable {\r\n        _to.transfer(msg.value);\r\n\r\n        balances[msg.sender] -= msg.value;\r\n        balances[_to] += msg.value;\r\n\r\n        emit Transfer(msg.sender, _to, msg.value);\r\n    }\r\n\r\nfunction getAsksCount () external view returns (uint count) {\r\nreturn asks.length;\r\n}\r\n\r\nfunction getAskUserID(uint32 userID) external view returns(address producer, uint32 day, uint32 price, uint64 energy) {\r\nuint idx = asksIndex[userID];\r\nrequire(asks[idx].userID == userID);\r\nreturn (asks[idx].producer, asks[idx].day, asks[idx].price, asks[idx].energy);\r\n}\r\n\r\n}",
  "sourcePath": "C:\\Users\\Rahul PC\\Desktop\\Thesis\\Energy Trading using BCn\\Project8\\practice201\\contracts\\Energy.sol",
  "compiler": {
    "name": "solc",
    "version": "0.8.13+commit.abaa5c0e.Emscripten.clang"
  },
  "schemaVersion": "3.4.14",
  "updatedAt": "2023-06-18T13:01:51.484Z",
  "networkType": "ethereum",
  "devdoc": {
    "kind": "dev",
    "methods": {},
    "version": 1
  },
  "userdoc": {
    "kind": "user",
    "methods": {
      "buy_energy(address,uint32,uint32,uint64)": {
        "notice": "to be bought. aday Day for which the offer is valid. aprice Price surcharge in millicent/kwh above market"
      }
    },
    "version": 1
  }
}