{
  "contractName": "Energy",
  "abi": [
    {
      "inputs": [],
      "stateMutability": "nonpayable",
      "type": "constructor"
    },
    {
      "anonymous": false,
      "inputs": [
        {
          "indexed": true,
          "internalType": "address",
          "name": "producer",
          "type": "address"
        },
        {
          "indexed": true,
          "internalType": "uint32",
          "name": "day",
          "type": "uint32"
        },
        {
          "indexed": true,
          "internalType": "uint32",
          "name": "price",
          "type": "uint32"
        },
        {
          "indexed": false,
          "internalType": "uint64",
          "name": "energy",
          "type": "uint64"
        }
      ],
      "name": "BidMade",
      "type": "event"
    },
    {
      "anonymous": false,
      "inputs": [
        {
          "indexed": true,
          "internalType": "address",
          "name": "producer",
          "type": "address"
        },
        {
          "indexed": true,
          "internalType": "uint32",
          "name": "day",
          "type": "uint32"
        },
        {
          "indexed": true,
          "internalType": "uint32",
          "name": "price",
          "type": "uint32"
        },
        {
          "indexed": false,
          "internalType": "uint64",
          "name": "energy",
          "type": "uint64"
        }
      ],
      "name": "BidRevoked",
      "type": "event"
    },
    {
      "anonymous": false,
      "inputs": [
        {
          "indexed": true,
          "internalType": "address",
          "name": "producer",
          "type": "address"
        },
        {
          "indexed": true,
          "internalType": "uint32",
          "name": "day",
          "type": "uint32"
        },
        {
          "indexed": false,
          "internalType": "uint32",
          "name": "price",
          "type": "uint32"
        },
        {
          "indexed": false,
          "internalType": "uint64",
          "name": "energy",
          "type": "uint64"
        },
        {
          "indexed": true,
          "internalType": "uint32",
          "name": "userID",
          "type": "uint32"
        }
      ],
      "name": "Deal",
      "type": "event"
    },
    {
      "anonymous": false,
      "inputs": [
        {
          "indexed": true,
          "internalType": "address",
          "name": "producer",
          "type": "address"
        },
        {
          "indexed": true,
          "internalType": "uint32",
          "name": "day",
          "type": "uint32"
        },
        {
          "indexed": false,
          "internalType": "uint32",
          "name": "price",
          "type": "uint32"
        },
        {
          "indexed": false,
          "internalType": "uint64",
          "name": "energy",
          "type": "uint64"
        },
        {
          "indexed": true,
          "internalType": "uint32",
          "name": "userID",
          "type": "uint32"
        }
      ],
      "name": "DealRevoked",
      "type": "event"
    },
    {
      "anonymous": false,
      "inputs": [
        {
          "indexed": true,
          "internalType": "address",
          "name": "consumer",
          "type": "address"
        }
      ],
      "name": "consumerDeregistered",
      "type": "event"
    },
    {
      "anonymous": false,
      "inputs": [
        {
          "indexed": true,
          "internalType": "address",
          "name": "consumer",
          "type": "address"
        }
      ],
      "name": "consumerRegistered",
      "type": "event"
    },
    {
      "anonymous": false,
      "inputs": [
        {
          "indexed": true,
          "internalType": "address",
          "name": "producer",
          "type": "address"
        }
      ],
      "name": "producerDeregistered",
      "type": "event"
    },
    {
      "anonymous": false,
      "inputs": [
        {
          "indexed": true,
          "internalType": "address",
          "name": "producer",
          "type": "address"
        }
      ],
      "name": "producerRegistered",
      "type": "event"
    },
    {
      "inputs": [
        {
          "internalType": "uint256",
          "name": "",
          "type": "uint256"
        }
      ],
      "name": "asks",
      "outputs": [
        {
          "internalType": "address",
          "name": "producer",
          "type": "address"
        },
        {
          "internalType": "uint32",
          "name": "day",
          "type": "uint32"
        },
        {
          "internalType": "uint32",
          "name": "price",
          "type": "uint32"
        },
        {
          "internalType": "uint64",
          "name": "energy",
          "type": "uint64"
        },
        {
          "internalType": "uint32",
          "name": "userID",
          "type": "uint32"
        },
        {
          "internalType": "uint64",
          "name": "timestamp",
          "type": "uint64"
        }
      ],
      "stateMutability": "view",
      "type": "function",
      "constant": true
    },
    {
      "inputs": [
        {
          "internalType": "uint32",
          "name": "",
          "type": "uint32"
        }
      ],
      "name": "asksIndex",
      "outputs": [
        {
          "internalType": "uint256",
          "name": "",
          "type": "uint256"
        }
      ],
      "stateMutability": "view",
      "type": "function",
      "constant": true
    },
    {
      "inputs": [
        {
          "internalType": "address",
          "name": "",
          "type": "address"
        }
      ],
      "name": "consumers",
      "outputs": [
        {
          "internalType": "uint32",
          "name": "",
          "type": "uint32"
        }
      ],
      "stateMutability": "view",
      "type": "function",
      "constant": true
    },
    {
      "inputs": [
        {
          "internalType": "address",
          "name": "",
          "type": "address"
        }
      ],
      "name": "producers",
      "outputs": [
        {
          "internalType": "uint256",
          "name": "",
          "type": "uint256"
        }
      ],
      "stateMutability": "view",
      "type": "function",
      "constant": true
    },
    {
      "stateMutability": "payable",
      "type": "receive",
      "payable": true
    },
    {
      "inputs": [
        {
          "internalType": "address",
          "name": "aconsumer",
          "type": "address"
        },
        {
          "internalType": "uint32",
          "name": "auserID",
          "type": "uint32"
        },
        {
          "internalType": "uint256",
          "name": "buserEnergyBal",
          "type": "uint256"
        }
      ],
      "name": "registerConsumer",
      "outputs": [],
      "stateMutability": "nonpayable",
      "type": "function"
    },
    {
      "inputs": [
        {
          "internalType": "address",
          "name": "bproducer",
          "type": "address"
        },
        {
          "internalType": "uint256",
          "name": "buserID",
          "type": "uint256"
        },
        {
          "internalType": "uint256",
          "name": "buserEnergyBal",
          "type": "uint256"
        }
      ],
      "name": "registerProducer",
      "outputs": [],
      "stateMutability": "nonpayable",
      "type": "function"
    },
    {
      "inputs": [
        {
          "internalType": "address",
          "name": "bproducer",
          "type": "address"
        }
      ],
      "name": "deregisterProducer",
      "outputs": [],
      "stateMutability": "nonpayable",
      "type": "function"
    },
    {
      "inputs": [
        {
          "internalType": "uint32",
          "name": "aday",
          "type": "uint32"
        },
        {
          "internalType": "uint32",
          "name": "apriceMax",
          "type": "uint32"
        },
        {
          "internalType": "uint32",
          "name": "apriceMin",
          "type": "uint32"
        },
        {
          "internalType": "uint64",
          "name": "amaxenergy",
          "type": "uint64"
        },
        {
          "internalType": "uint64",
          "name": "aminenergy",
          "type": "uint64"
        },
        {
          "internalType": "uint64",
          "name": "atimestamp",
          "type": "uint64"
        }
      ],
      "name": "offer_energy",
      "outputs": [],
      "stateMutability": "nonpayable",
      "type": "function"
    },
    {
      "inputs": [
        {
          "internalType": "uint256",
          "name": "idx",
          "type": "uint256"
        }
      ],
      "name": "showBids",
      "outputs": [
        {
          "internalType": "address",
          "name": "producer",
          "type": "address"
        },
        {
          "internalType": "uint32",
          "name": "day",
          "type": "uint32"
        },
        {
          "internalType": "uint32",
          "name": "maxprice",
          "type": "uint32"
        },
        {
          "internalType": "uint64",
          "name": "energy",
          "type": "uint64"
        },
        {
          "internalType": "uint64",
          "name": "timestamp",
          "type": "uint64"
        }
      ],
      "stateMutability": "view",
      "type": "function",
      "constant": true
    },
    {
      "inputs": [
        {
          "internalType": "address",
          "name": "aproducer",
          "type": "address"
        },
        {
          "internalType": "uint32",
          "name": "aday",
          "type": "uint32"
        }
      ],
      "name": "getBidByProducerAndDay",
      "outputs": [
        {
          "internalType": "address",
          "name": "producer",
          "type": "address"
        },
        {
          "internalType": "uint32",
          "name": "day",
          "type": "uint32"
        },
        {
          "internalType": "uint32",
          "name": "maxprice",
          "type": "uint32"
        },
        {
          "internalType": "uint64",
          "name": "energy",
          "type": "uint64"
        },
        {
          "internalType": "uint64",
          "name": "timestamp",
          "type": "uint64"
        }
      ],
      "stateMutability": "view",
      "type": "function",
      "constant": true
    },
    {
      "inputs": [
        {
          "internalType": "uint32",
          "name": "idx",
          "type": "uint32"
        }
      ],
      "name": "getBidById",
      "outputs": [
        {
          "internalType": "address",
          "name": "producer",
          "type": "address"
        },
        {
          "internalType": "uint32",
          "name": "day",
          "type": "uint32"
        },
        {
          "internalType": "uint32",
          "name": "maxprice",
          "type": "uint32"
        },
        {
          "internalType": "uint64",
          "name": "energy",
          "type": "uint64"
        },
        {
          "internalType": "uint64",
          "name": "timestamp",
          "type": "uint64"
        }
      ],
      "stateMutability": "view",
      "type": "function",
      "constant": true
    },
    {
      "inputs": [
        {
          "internalType": "uint32",
          "name": "aday",
          "type": "uint32"
        }
      ],
      "name": "getMinPrice",
      "outputs": [
        {
          "internalType": "uint32",
          "name": "",
          "type": "uint32"
        }
      ],
      "stateMutability": "view",
      "type": "function",
      "constant": true
    },
    {
      "inputs": [],
      "name": "getBidsCount",
      "outputs": [
        {
          "internalType": "uint256",
          "name": "count",
          "type": "uint256"
        }
      ],
      "stateMutability": "view",
      "type": "function",
      "constant": true
    },
    {
      "inputs": [
        {
          "internalType": "address payable",
          "name": "aproducer",
          "type": "address"
        },
        {
          "internalType": "uint32",
          "name": "aday",
          "type": "uint32"
        },
        {
          "internalType": "uint32",
          "name": "aprice",
          "type": "uint32"
        },
        {
          "internalType": "uint64",
          "name": "aenergy",
          "type": "uint64"
        }
      ],
      "name": "buy_energy",
      "outputs": [],
      "stateMutability": "payable",
      "type": "function",
      "payable": true
    },
    {
      "inputs": [],
      "name": "getAsksCount",
      "outputs": [
        {
          "internalType": "uint256",
          "name": "count",
          "type": "uint256"
        }
      ],
      "stateMutability": "view",
      "type": "function",
      "constant": true
    },
    {
      "inputs": [
        {
          "internalType": "uint32",
          "name": "userID",
          "type": "uint32"
        }
      ],
      "name": "getAskUserID",
      "outputs": [
        {
          "internalType": "address",
          "name": "producer",
          "type": "address"
        },
        {
          "internalType": "uint32",
          "name": "day",
          "type": "uint32"
        },
        {
          "internalType": "uint32",
          "name": "price",
          "type": "uint32"
        },
        {
          "internalType": "uint64",
          "name": "energy",
          "type": "uint64"
        }
      ],
      "stateMutability": "view",
      "type": "function",
      "constant": true
    }
  ],
  "bytecode": "0x608060405234801561001057600080fd5b50336000806101000a81548173ffffffffffffffffffffffffffffffffffffffff021916908373ffffffffffffffffffffffffffffffffffffffff16021790555061270f806100606000396000f3fe6080604052600436106100f75760003560e01c80639ed81bc91161008a578063bc7cf83011610059578063bc7cf83014610382578063e45375ae146103ab578063e4646f5b146103ec578063fbf3ebe014610415576100fe565b80639ed81bc9146102d7578063a64276b514610300578063a77674a714610329578063bbae30c914610345576100fe565b806326324eff116100c657806326324eff1461020357806327c1660514610240578063542900651461028157806363505ae8146102ac576100fe565b80630b0c1493146101035780630bf536681461014557806310663fc8146101825780631c032ebf146101c3576100fe565b366100fe57005b600080fd5b34801561010f57600080fd5b5061012a60048036038101906101259190611f9e565b610452565b60405161013c9695949392919061204e565b60405180910390f35b34801561015157600080fd5b5061016c600480360381019061016791906120db565b610516565b6040516101799190612108565b60405180910390f35b34801561018e57600080fd5b506101a960048036038101906101a49190611f9e565b610539565b6040516101ba959493929190612123565b60405180910390f35b3480156101cf57600080fd5b506101ea60048036038101906101e591906121a2565b61067a565b6040516101fa94939291906121cf565b60405180910390f35b34801561020f57600080fd5b5061022a600480360381019061022591906120db565b6107ed565b6040516102379190612223565b60405180910390f35b34801561024c57600080fd5b506102676004803603810190610262919061223e565b610805565b604051610278959493929190612123565b60405180910390f35b34801561028d57600080fd5b506102966109a8565b6040516102a39190612223565b60405180910390f35b3480156102b857600080fd5b506102c16109b5565b6040516102ce9190612223565b60405180910390f35b3480156102e357600080fd5b506102fe60048036038101906102f991906120db565b6109c2565b005b34801561030c57600080fd5b50610327600480360381019061032291906122aa565b610aa3565b005b610343600480360381019061033e9190612375565b6111fa565b005b34801561035157600080fd5b5061036c600480360381019061036791906121a2565b6112c0565b6040516103799190612223565b60405180910390f35b34801561038e57600080fd5b506103a960048036038101906103a491906123dc565b6112d8565b005b3480156103b757600080fd5b506103d260048036038101906103cd91906121a2565b611471565b6040516103e3959493929190612123565b60405180910390f35b3480156103f857600080fd5b50610413600480360381019061040e919061242f565b6115d0565b005b34801561042157600080fd5b5061043c600480360381019061043791906121a2565b611705565b6040516104499190612108565b60405180910390f35b6005818154811061046257600080fd5b90600052602060002090600202016000915090508060000160009054906101000a900473ffffffffffffffffffffffffffffffffffffffff16908060000160149054906101000a900463ffffffff16908060000160189054906101000a900463ffffffff16908060010160009054906101000a900467ffffffffffffffff16908060010160089054906101000a900463ffffffff169080600101600c9054906101000a900467ffffffffffffffff16905086565b60016020528060005260406000206000915054906101000a900463ffffffff1681565b60008060008060006004868154811061055557610554612482565b5b906000526020600020906002020160000160009054906101000a900473ffffffffffffffffffffffffffffffffffffffff166004878154811061059b5761059a612482565b5b906000526020600020906002020160000160149054906101000a900463ffffffff16600488815481106105d1576105d0612482565b5b906000526020600020906002020160000160189054906101000a900463ffffffff166004898154811061060757610606612482565b5b906000526020600020906002020160010160009054906101000a900467ffffffffffffffff1660048a8154811061064157610640612482565b5b906000526020600020906002020160010160109054906101000a900467ffffffffffffffff169450945094509450945091939590929450565b6000806000806000600760008763ffffffff1663ffffffff1681526020019081526020016000205490508563ffffffff16600582815481106106bf576106be612482565b5b906000526020600020906002020160010160089054906101000a900463ffffffff1663ffffffff16146106f157600080fd5b6005818154811061070557610704612482565b5b906000526020600020906002020160000160009054906101000a900473ffffffffffffffffffffffffffffffffffffffff166005828154811061074b5761074a612482565b5b906000526020600020906002020160000160149054906101000a900463ffffffff166005838154811061078157610780612482565b5b906000526020600020906002020160000160189054906101000a900463ffffffff16600584815481106107b7576107b6612482565b5b906000526020600020906002020160010160009054906101000a900467ffffffffffffffff169450945094509450509193509193565b60026020528060005260406000206000915090505481565b600080600080600080600660008973ffffffffffffffffffffffffffffffffffffffff1673ffffffffffffffffffffffffffffffffffffffff16815260200190815260200160002060008863ffffffff1663ffffffff1681526020019081526020016000205490506004818154811061088157610880612482565b5b906000526020600020906002020160000160009054906101000a900473ffffffffffffffffffffffffffffffffffffffff16600482815481106108c7576108c6612482565b5b906000526020600020906002020160000160149054906101000a900463ffffffff16600483815481106108fd576108fc612482565b5b906000526020600020906002020160000160189054906101000a900463ffffffff166004848154811061093357610932612482565b5b906000526020600020906002020160010160009054906101000a900467ffffffffffffffff166004858154811061096d5761096c612482565b5b906000526020600020906002020160010160109054906101000a900467ffffffffffffffff1695509550955095509550509295509295909350565b6000600580549050905090565b6000600480549050905090565b60008054906101000a900473ffffffffffffffffffffffffffffffffffffffff1673ffffffffffffffffffffffffffffffffffffffff163373ffffffffffffffffffffffffffffffffffffffff1614610a1a57600080fd5b8073ffffffffffffffffffffffffffffffffffffffff167f0bb6d68f109745f7ae353e3b90fff6fb8245c34cca44f18d9dfa00e4d705fa6460405160405180910390a2600260008273ffffffffffffffffffffffffffffffffffffffff1673ffffffffffffffffffffffffffffffffffffffff1681526020019081526020016000206000905550565b6000600260003373ffffffffffffffffffffffffffffffffffffffff1673ffffffffffffffffffffffffffffffffffffffff1681526020019081526020016000205411610aef57600080fd5b60016103e8610afe91906124e0565b6103e8610b0b91906124e0565b67ffffffffffffffff168267ffffffffffffffff161015610b2b57600080fd5b8267ffffffffffffffff16600360003373ffffffffffffffffffffffffffffffffffffffff1673ffffffffffffffffffffffffffffffffffffffff168152602001908152602001600020541015610b8157600080fd5b6000600660003373ffffffffffffffffffffffffffffffffffffffff1673ffffffffffffffffffffffffffffffffffffffff16815260200190815260200160002060008863ffffffff1663ffffffff16815260200190815260200160002054905080600480549050118015610c6657503373ffffffffffffffffffffffffffffffffffffffff1660048281548110610c1c57610c1b612482565b5b906000526020600020906002020160000160009054906101000a900473ffffffffffffffffffffffffffffffffffffffff1673ffffffffffffffffffffffffffffffffffffffff16145b8015610cb257508663ffffffff1660048281548110610c8857610c87612482565b5b906000526020600020906002020160000160149054906101000a900463ffffffff1663ffffffff16145b15610e555760048181548110610ccb57610cca612482565b5b906000526020600020906002020160010160109054906101000a900467ffffffffffffffff1667ffffffffffffffff168267ffffffffffffffff1611610d1057600080fd5b60048181548110610d2457610d23612482565b5b906000526020600020906002020160000160189054906101000a900463ffffffff1663ffffffff1660048281548110610d6057610d5f612482565b5b906000526020600020906002020160000160149054906101000a900463ffffffff1663ffffffff1660048381548110610d9c57610d9b612482565b5b906000526020600020906002020160000160009054906101000a900473ffffffffffffffffffffffffffffffffffffffff1673ffffffffffffffffffffffffffffffffffffffff167f664a04e305e35425afb90c28227063c0b0b433a97155f2492f415af0bd4fea3460048581548110610e1957610e18612482565b5b906000526020600020906002020160010160009054906101000a900467ffffffffffffffff16604051610e4c9190612522565b60405180910390a45b600480549050905080600660003373ffffffffffffffffffffffffffffffffffffffff1673ffffffffffffffffffffffffffffffffffffffff16815260200190815260200160002060008963ffffffff1663ffffffff1681526020019081526020016000208190555060046040518060e001604052803373ffffffffffffffffffffffffffffffffffffffff1681526020018963ffffffff1681526020018863ffffffff1681526020018763ffffffff1681526020018667ffffffffffffffff1681526020018567ffffffffffffffff1681526020018467ffffffffffffffff16815250908060018154018082558091505060019003906000526020600020906002020160009091909190915060008201518160000160006101000a81548173ffffffffffffffffffffffffffffffffffffffff021916908373ffffffffffffffffffffffffffffffffffffffff16021790555060208201518160000160146101000a81548163ffffffff021916908363ffffffff16021790555060408201518160000160186101000a81548163ffffffff021916908363ffffffff160217905550606082015181600001601c6101000a81548163ffffffff021916908363ffffffff16021790555060808201518160010160006101000a81548167ffffffffffffffff021916908367ffffffffffffffff16021790555060a08201518160010160086101000a81548167ffffffffffffffff021916908367ffffffffffffffff16021790555060c08201518160010160106101000a81548167ffffffffffffffff021916908367ffffffffffffffff1602179055505050600481815481106110c1576110c0612482565b5b906000526020600020906002020160000160189054906101000a900463ffffffff1663ffffffff16600482815481106110fd576110fc612482565b5b906000526020600020906002020160000160149054906101000a900463ffffffff1663ffffffff166004838154811061113957611138612482565b5b906000526020600020906002020160000160009054906101000a900473ffffffffffffffffffffffffffffffffffffffff1673ffffffffffffffffffffffffffffffffffffffff167f35c89b54d5468d95ecdd889b5dcd7245be0bee1a5dfbe384adc4e8f547f31fd7600485815481106111b6576111b5612482565b5b906000526020600020906002020160010160009054906101000a900467ffffffffffffffff166040516111e99190612522565b60405180910390a450505050505050565b6000600160003373ffffffffffffffffffffffffffffffffffffffff1673ffffffffffffffffffffffffffffffffffffffff16815260200190815260200160002060009054906101000a900463ffffffff1663ffffffff161161125c57600080fd5b6112ba84848484600160003373ffffffffffffffffffffffffffffffffffffffff1673ffffffffffffffffffffffffffffffffffffffff16815260200190815260200160002060009054906101000a900463ffffffff1660006117f1565b50505050565b60076020528060005260406000206000915090505481565b60008054906101000a900473ffffffffffffffffffffffffffffffffffffffff1673ffffffffffffffffffffffffffffffffffffffff163373ffffffffffffffffffffffffffffffffffffffff161461133057600080fd5b80600360008573ffffffffffffffffffffffffffffffffffffffff1673ffffffffffffffffffffffffffffffffffffffff1681526020019081526020016000208190555060008263ffffffff16146113ca578273ffffffffffffffffffffffffffffffffffffffff167faba09d491d88bf0ee0f8fc8f0168c0178e7210f18b5f524e052a72f550c4474a60405160405180910390a261140e565b8273ffffffffffffffffffffffffffffffffffffffff167ffa23c8d074a5c45120a1bac6ecf198fd3fa6f45dabe40a18dfa423f69d52c30c60405160405180910390a25b81600160008573ffffffffffffffffffffffffffffffffffffffff1673ffffffffffffffffffffffffffffffffffffffff16815260200190815260200160002060006101000a81548163ffffffff021916908363ffffffff160217905550505050565b600080600080600060048663ffffffff168154811061149357611492612482565b5b906000526020600020906002020160000160009054906101000a900473ffffffffffffffffffffffffffffffffffffffff1660048763ffffffff16815481106114df576114de612482565b5b906000526020600020906002020160000160149054906101000a900463ffffffff1660048863ffffffff168154811061151b5761151a612482565b5b906000526020600020906002020160000160189054906101000a900463ffffffff1660048963ffffffff168154811061155757611556612482565b5b906000526020600020906002020160010160009054906101000a900467ffffffffffffffff1660048a63ffffffff168154811061159757611596612482565b5b906000526020600020906002020160010160109054906101000a900467ffffffffffffffff169450945094509450945091939590929450565b60008054906101000a900473ffffffffffffffffffffffffffffffffffffffff1673ffffffffffffffffffffffffffffffffffffffff163373ffffffffffffffffffffffffffffffffffffffff161461162857600080fd5b8273ffffffffffffffffffffffffffffffffffffffff167f769268709e630d5b24d4c651adeae2d7a75c3dd7c3876275233e21570be22fd460405160405180910390a26000821161167857600080fd5b81600260008573ffffffffffffffffffffffffffffffffffffffff1673ffffffffffffffffffffffffffffffffffffffff1681526020019081526020016000208190555080600360008573ffffffffffffffffffffffffffffffffffffffff1673ffffffffffffffffffffffffffffffffffffffff16815260200190815260200160002081905550505050565b600080600260003373ffffffffffffffffffffffffffffffffffffffff1673ffffffffffffffffffffffffffffffffffffffff168152602001908152602001600020541161175257600080fd5b6000600660003373ffffffffffffffffffffffffffffffffffffffff1673ffffffffffffffffffffffffffffffffffffffff16815260200190815260200160002060008463ffffffff1663ffffffff168152602001908152602001600020549050600481815481106117c7576117c6612482565b5b9060005260206000209060020201600001601c9054906101000a900463ffffffff16915050919050565b6000600660008873ffffffffffffffffffffffffffffffffffffffff1673ffffffffffffffffffffffffffffffffffffffff16815260200190815260200160002060008763ffffffff1663ffffffff168152602001908152602001600020549050806004805490501180156118d657508673ffffffffffffffffffffffffffffffffffffffff166004828154811061188c5761188b612482565b5b906000526020600020906002020160000160009054906101000a900473ffffffffffffffffffffffffffffffffffffffff1673ffffffffffffffffffffffffffffffffffffffff16145b801561192257508563ffffffff16600482815481106118f8576118f7612482565b5b906000526020600020906002020160000160149054906101000a900463ffffffff1663ffffffff16145b15611f0b578463ffffffff166004828154811061194257611941612482565b5b906000526020600020906002020160000160189054906101000a900463ffffffff1663ffffffff16101580156119b957508463ffffffff166004828154811061198e5761198d612482565b5b9060005260206000209060020201600001601c9054906101000a900463ffffffff1663ffffffff1611155b6119c257600080fd5b8367ffffffffffffffff16600482815481106119e1576119e0612482565b5b906000526020600020906002020160010160009054906101000a900467ffffffffffffffff1667ffffffffffffffff1610158015611a6457508367ffffffffffffffff1660048281548110611a3957611a38612482565b5b9060005260206000209060020201600001601c9054906101000a900463ffffffff1663ffffffff1611155b611a6d57600080fd5b600580549050600760008563ffffffff1663ffffffff1681526020019081526020016000208190555060056040518060c001604052808973ffffffffffffffffffffffffffffffffffffffff1681526020018863ffffffff1681526020018763ffffffff1681526020018667ffffffffffffffff1681526020018563ffffffff1681526020018467ffffffffffffffff16815250908060018154018082558091505060019003906000526020600020906002020160009091909190915060008201518160000160006101000a81548173ffffffffffffffffffffffffffffffffffffffff021916908373ffffffffffffffffffffffffffffffffffffffff16021790555060208201518160000160146101000a81548163ffffffff021916908363ffffffff16021790555060408201518160000160186101000a81548163ffffffff021916908363ffffffff16021790555060608201518160010160006101000a81548167ffffffffffffffff021916908367ffffffffffffffff16021790555060808201518160010160086101000a81548163ffffffff021916908363ffffffff16021790555060a082015181600101600c6101000a81548167ffffffffffffffff021916908367ffffffffffffffff16021790555050508263ffffffff168663ffffffff168873ffffffffffffffffffffffffffffffffffffffff167f1d809c14ce26d314cb611c6eb2d07dcbce4c1a76cfea828af40737b78dcb60708888604051611c9c92919061253d565b60405180910390a46000600360003373ffffffffffffffffffffffffffffffffffffffff1673ffffffffffffffffffffffffffffffffffffffff1681526020019081526020016000205490508467ffffffffffffffff16600360008a73ffffffffffffffffffffffffffffffffffffffff1673ffffffffffffffffffffffffffffffffffffffff1681526020019081526020016000206000828254611d419190612566565b925050819055508467ffffffffffffffff16600360003373ffffffffffffffffffffffffffffffffffffffff1673ffffffffffffffffffffffffffffffffffffffff1681526020019081526020016000206000828254611da1919061259a565b925050819055508467ffffffffffffffff1681600360003373ffffffffffffffffffffffffffffffffffffffff1673ffffffffffffffffffffffffffffffffffffffff16815260200190815260200160002054611dfe9190612566565b14611e3e576040517f08c379a0000000000000000000000000000000000000000000000000000000008152600401611e359061264d565b60405180910390fd5b8563ffffffff1685611e5091906124e0565b67ffffffffffffffff16341015611e9c576040517f08c379a0000000000000000000000000000000000000000000000000000000008152600401611e93906126b9565b60405180910390fd5b611ea588611f19565b600660008973ffffffffffffffffffffffffffffffffffffffff1673ffffffffffffffffffffffffffffffffffffffff16815260200190815260200160002060008863ffffffff1663ffffffff1681526020019081526020016000206000905550611f10565b600080fd5b50505050505050565b8073ffffffffffffffffffffffffffffffffffffffff166108fc479081150290604051600060405180830381858888f19350505050158015611f5f573d6000803e3d6000fd5b5050565b600080fd5b6000819050919050565b611f7b81611f68565b8114611f8657600080fd5b50565b600081359050611f9881611f72565b92915050565b600060208284031215611fb457611fb3611f63565b5b6000611fc284828501611f89565b91505092915050565b600073ffffffffffffffffffffffffffffffffffffffff82169050919050565b6000611ff682611fcb565b9050919050565b61200681611feb565b82525050565b600063ffffffff82169050919050565b6120258161200c565b82525050565b600067ffffffffffffffff82169050919050565b6120488161202b565b82525050565b600060c0820190506120636000830189611ffd565b612070602083018861201c565b61207d604083018761201c565b61208a606083018661203f565b612097608083018561201c565b6120a460a083018461203f565b979650505050505050565b6120b881611feb565b81146120c357600080fd5b50565b6000813590506120d5816120af565b92915050565b6000602082840312156120f1576120f0611f63565b5b60006120ff848285016120c6565b91505092915050565b600060208201905061211d600083018461201c565b92915050565b600060a0820190506121386000830188611ffd565b612145602083018761201c565b612152604083018661201c565b61215f606083018561203f565b61216c608083018461203f565b9695505050505050565b61217f8161200c565b811461218a57600080fd5b50565b60008135905061219c81612176565b92915050565b6000602082840312156121b8576121b7611f63565b5b60006121c68482850161218d565b91505092915050565b60006080820190506121e46000830187611ffd565b6121f1602083018661201c565b6121fe604083018561201c565b61220b606083018461203f565b95945050505050565b61221d81611f68565b82525050565b60006020820190506122386000830184612214565b92915050565b6000806040838503121561225557612254611f63565b5b6000612263858286016120c6565b92505060206122748582860161218d565b9150509250929050565b6122878161202b565b811461229257600080fd5b50565b6000813590506122a48161227e565b92915050565b60008060008060008060c087890312156122c7576122c6611f63565b5b60006122d589828a0161218d565b96505060206122e689828a0161218d565b95505060406122f789828a0161218d565b945050606061230889828a01612295565b935050608061231989828a01612295565b92505060a061232a89828a01612295565b9150509295509295509295565b600061234282611fcb565b9050919050565b61235281612337565b811461235d57600080fd5b50565b60008135905061236f81612349565b92915050565b6000806000806080858703121561238f5761238e611f63565b5b600061239d87828801612360565b94505060206123ae8782880161218d565b93505060406123bf8782880161218d565b92505060606123d087828801612295565b91505092959194509250565b6000806000606084860312156123f5576123f4611f63565b5b6000612403868287016120c6565b93505060206124148682870161218d565b925050604061242586828701611f89565b9150509250925092565b60008060006060848603121561244857612447611f63565b5b6000612456868287016120c6565b935050602061246786828701611f89565b925050604061247886828701611f89565b9150509250925092565b7f4e487b7100000000000000000000000000000000000000000000000000000000600052603260045260246000fd5b7f4e487b7100000000000000000000000000000000000000000000000000000000600052601160045260246000fd5b60006124eb8261202b565b91506124f68361202b565b92508167ffffffffffffffff0483118215151615612517576125166124b1565b5b828202905092915050565b6000602082019050612537600083018461203f565b92915050565b6000604082019050612552600083018561201c565b61255f602083018461203f565b9392505050565b600061257182611f68565b915061257c83611f68565b92508282101561258f5761258e6124b1565b5b828203905092915050565b60006125a582611f68565b91506125b083611f68565b9250827fffffffffffffffffffffffffffffffffffffffffffffffffffffffffffffffff038211156125e5576125e46124b1565b5b828201905092915050565b600082825260208201905092915050565b7f456e65726779206973206e6f74207472616e7366657265642079657400000000600082015250565b6000612637601c836125f0565b915061264282612601565b602082019050919050565b600060208201905081810360008301526126668161262a565b9050919050565b7f53656e6420656e6f756768206574686572000000000000000000000000000000600082015250565b60006126a36011836125f0565b91506126ae8261266d565b602082019050919050565b600060208201905081810360008301526126d281612696565b905091905056fea2646970667358221220aa1106b57ff3e35348aeffb35ed34bdd07513a64f48a8e5e2961db3242e855c364736f6c634300080d0033",
  "immutableReferences": {},
  "source": "//SPDX-License-Identifier:GPL-3.0\npragma solidity ^0.8.13;\n\ncontract Energy {\nconstructor() { owner = msg. sender; }\nreceive() external payable {}\naddress owner;\nmodifier onlyOwner {\n\trequire(msg.sender == owner);\n\t_;\n}\n\n\nevent consumerRegistered(address indexed consumer);\nevent consumerDeregistered (address indexed consumer);\n\n// map address to userID\nmapping(address => uint32) public consumers;\n\nmodifier onlyRegisteredConsumers {\nrequire (consumers[msg. sender] > 0);\n_;\n}\n\n//I Allowed the owner of the address aconsumer.address()\n//to make transactions on behalf of user id \"auserID*\n//Register address aconsumer to belong to userID\n//auserID. Addresses can be delisted (\"unregistered\") by \n//setting the userID auserID to zero.\nfunction registerConsumer (address aconsumer, uint32 auserID, uint buserEnergyBal) onlyOwner external {\n/////////\\\\\\\\\\\\\\\nuserEnergyBal [aconsumer] = buserEnergyBal;///////////\\\\\\\\\\\\\\\\\\\\\n/////////\\\\\\\\\\\\\\\\\nif (auserID != 0) {\nemit consumerRegistered(aconsumer);\n} else {\nemit consumerDeregistered (aconsumer);\n}\nconsumers [aconsumer] = auserID;\n}\n\n// A contract that allows producer addresses to be registered.\n\nevent producerRegistered(address indexed producer);//44\nevent producerDeregistered (address indexed producer);\n//map address to producerID \"is a registered producer\" \nmapping(address => uint) public producers;////////////\nmapping(address => uint) internal userEnergyBal;/////////////\n\nmodifier onlyRegisteredProducers {\nrequire (producers[msg. sender]>0);\n_;\n}\n//// @notice Allow the owner of address aproducer.(address) to\n//act as a producer (by offering energy).\nfunction registerProducer(address bproducer,uint buserID, uint buserEnergyBal) onlyOwner external {\nemit producerRegistered(bproducer);\nrequire(buserID>0);//////////////\nproducers [bproducer] = buserID;///////////\n/////////\\\\\\\\\\\\\\\nuserEnergyBal [bproducer] = buserEnergyBal;///////////\\\\\\\\\\\\\\\\\\\\\n/////////\\\\\\\\\\\\\\\\\n////@note ID can not be zero\n}\n\n////@notice Cease alLowing the owner of address\n//aproducer. Address()' to act as a producer (by offering energy).\nfunction deregisterProducer (address bproducer) onlyOwner external {\nemit producerDeregistered(bproducer);\ndelete(producers[bproducer]);////////////\n}\n\n\nevent BidMade(address indexed producer, uint32 indexed day, uint32 indexed price, uint64 energy); \nevent BidRevoked (address indexed producer, uint32 indexed day, uint32 indexed price, uint64 energy);\nevent Deal (address indexed producer, uint32 indexed day, uint32 price, uint64 energy, uint32 indexed userID);\nevent DealRevoked (address indexed producer, uint32 indexed day, uint32 price, uint64 energy, uint32 indexed userID); //77\n\n//78\nuint64 constant mWh = 1;\nuint64 constant Wh = 1000*mWh;\nuint64 constant kWh = 1000 * Wh;\nuint64 constant MWh = 1000 * kWh;\nuint64 constant GWh = 1000 * MWh;\nuint64 constant TWh = 1000 * GWh;\nuint64 constant maxEnergy = 18446 * GWh;\n\nstruct Bid {\n    //producer's public key\n    address producer;\n    \n    //day for which the offer is valid\n    uint32 day;\n\n     //price vs market price\n     uint32 maxprice;\n     uint32 minprice;\n\n     //energy to sell\n     uint64 maxenergy;\n     uint64 minenergy;\n\n     //timestamp for when the offer was submitted\n     uint64 timestamp;\n}\n\nstruct Ask {\n    address producer;\n    uint32 day; \n    uint32 price; \n    uint64 energy; \n    uint32 userID; \n    uint64 timestamp;\n}\n\n//bids (for energy: offering energy for sale)\nBid[] private bids;\n\n//asks (for energy: demanding energy to buy)\nAsk[] public asks;\n\n//map (address, day) to index into bids \n//maps a producer's public key and the day for which the offer is valid \n//to the index of the corresponding Bid object in the bids array.\nmapping (address => mapping(uint32 => uint)) private bidsIndex;\n\n//map (userid) to index into asks [last take written]\n//maps a user ID to the index of the corresponding Ask object in the asks array.\nmapping (uint32 => uint) public asksIndex;\n\n//aday Day for which the offer is valid.\n//aprice price surcharge in millicent/kwh above market price\n//aenergy Energy to be offered in mwh\n//atimestamp UNIX time (seconds since 1970) in nanoseconds\nfunction offer_energy (uint32 aday, uint32 apriceMax, uint32 apriceMin, uint64 amaxenergy, uint64 aminenergy, uint64 atimestamp) onlyRegisteredProducers external {\n//require a minimum offer of 1 kWh\nrequire (aminenergy >= kWh);\n///////\\\\\\\\\\\nrequire (userEnergyBal[msg.sender]>=amaxenergy);///////////\\\\\\\\\\\\\\\\\\\\\n///////\\\\\\\\\\\\\n\nuint idx = bidsIndex[msg.sender][aday];\n//idx is either 0 or such that bids[idx] has the right producer and day (or both 0 and...) \n\n//if the bids array's length is greater than index number and the address at that index is a producer\n//and the day the address bid \nif ((bids.length > idx) && (bids[idx].producer == msg.sender) && (bids[idx].day == aday))\n{\n//we will only let newer timestamps affect the stored data i.e. unix timestamp\nrequire(atimestamp > bids[idx].timestamp);\nemit BidRevoked(bids[idx].producer, bids[idx].day, bids[idx].maxprice, bids[idx].maxenergy);\n}\n// create entry with new index idx for (msg. sender, aday)\nidx = bids.length;////by this the mapping index starts from 1 not zero\nbidsIndex[msg.sender][aday] = idx;\nbids.push(Bid({\n    producer: msg.sender, \n    day: aday, \n    maxprice: apriceMax,\n    minprice: apriceMin,\n    minenergy: aminenergy,\n    maxenergy: amaxenergy, \n    timestamp: atimestamp\n}));\nemit BidMade(bids[idx].producer, bids[idx].day, bids[idx].maxprice, bids[idx].maxenergy) ;\n}\n\n//can see the bids by giving the index number of the bids array\nfunction showBids(uint idx) public view returns (address producer,uint32 day,uint32 maxprice,uint64 energy,uint64 timestamp){\n    return (bids[idx].producer, bids[idx].day, bids[idx].maxprice, bids[idx].maxenergy, bids[idx].timestamp) ;\n}\n\n//can get the bids by giving the address and day\n// Anyone call this function, he'll retrieve all data without minimum price value.\nfunction getBidByProducerAndDay(address aproducer, uint32 aday) external view returns(address producer,uint32 day,uint32 maxprice,uint64 energy,uint64 timestamp) {\n    uint idx = bidsIndex[aproducer][aday];\n    return (bids[idx].producer, bids[idx].day, bids[idx].maxprice, bids[idx].maxenergy, bids[idx].timestamp) ;\n}\n\nfunction getBidById(uint32 idx) external view returns(address producer,uint32 day,uint32 maxprice,uint64 energy,uint64 timestamp){\n    return (bids[idx].producer, bids[idx].day, bids[idx].maxprice, bids[idx].maxenergy, bids[idx].timestamp) ;\n}\n\n//the minimum value of any bid can be seen by a producer\n// Restrict access only producer to access the minimum price of a specific address in a mapping\nfunction getMinPrice(uint32 aday) onlyRegisteredProducers external view returns(uint32) {\n    uint idx = bidsIndex[msg.sender][aday];\n    return (bids[idx].minprice);\n}\n\nfunction getBidsCount () external view returns (uint count) {\nreturn bids.length;\n}\n\n/////////////////\n// called by the user id provided by the owner and called by owner on behalf pf consumer\n// function buy_energy (address aproducer, uint32 aday, uint32 aprice, uint64 aenergy, uint32 auserID, uint64 atimestamp) onlyOwner external{\n// buy_energy_core(aproducer, aday, aprice, aenergy, auserID, atimestamp);\n// }\n////////////////\n\n//// aproducer Address of the producer offering the energy\n///to be bought.\n///aday Day for which the offer is valid.\n/// aprice Price surcharge in millicent/kwh above market\n////price\n////aenergy Energy to be offered in mwh\n\n//called by the id that is got from the consumers map and called by the consumer itself\n\n\nfunction buy_energy (address payable aproducer, uint32 aday, uint32 aprice, uint64 aenergy) onlyRegisteredConsumers external payable {\nbuy_energy_core(aproducer, aday, aprice, aenergy, consumers[msg. sender], 0);\n}\n\nfunction buy_energy_core(address payable aproducer, uint32 aday, uint32 aprice, uint64 aenergy, uint32 auserID, uint64 atimestamp) internal{\n//find offer by producer (aproducer) for day (aday), or zero\nuint idx = bidsIndex[aproducer][aday];\n\n//if the offer exists...\nif ((bids.length > idx) && (bids [idx].producer == aproducer) && (bids [idx].day == aday)) {\n//and has the right price...\nrequire(bids[idx].maxprice >=aprice && bids[idx].minprice<=aprice);\nrequire(bids[idx].maxenergy >=aenergy && bids[idx].minprice<=aenergy);\n\n// todo: prevent overwriting a later choice..\n\n//...then record the customer's choice\nasksIndex[auserID] = asks.length;//by this the mapping index starts from 1 not zero\nasks.push(Ask({\nproducer: aproducer, \nday: aday, \nprice: aprice, \nenergy: aenergy, \nuserID: auserID,\ntimestamp: atimestamp\n}));\nemit Deal (aproducer, aday, aprice, aenergy, auserID);\n///////////////\n// address payable payableRecipient = payable(aproducer);\n// payable(payableRecipient).transfer(10);\n\n/////\\\\\\\\\\\nuint256 beforeBal = userEnergyBal [msg.sender];\nuserEnergyBal[aproducer] -= aenergy;///////////\\\\\\\\\\\\\\\\\\\\\nuserEnergyBal [msg.sender] += aenergy;\nrequire(userEnergyBal[msg.sender]-beforeBal==aenergy,\"Energy is not transfered yet\");\n/////\\\\\\\\\\\\\\\nrequire(msg.value>= aenergy*aprice, \"Send enough ether\");\n\nsendEther(aproducer);\n\n//////////////////////\ndelete(bidsIndex[aproducer][aday]);\n} else {\n//the offer does not exist\nrevert();\n}\n}\n\nfunction sendEther(address payable _producer) internal{\n        _producer.transfer(address(this).balance);\n    }\n\nfunction getAsksCount () external view returns (uint count) {\nreturn asks.length;\n}\n\nfunction getAskUserID(uint32 userID) external view returns(address producer, uint32 day, uint32 price, uint64 energy) {\nuint idx = asksIndex[userID];\nrequire(asks[idx].userID == userID);\nreturn (asks[idx].producer, asks[idx].day, asks[idx].price, asks[idx].energy);\n}\n\n}",
  "sourcePath": "C:\\Users\\Rahul PC\\Desktop\\Thesis\\Energy Trading using BCn\\Project8\\practice201\\contracts\\Energy.sol",
  "compiler": {
    "name": "solc",
    "version": "0.8.13+commit.abaa5c0e.Emscripten.clang"
  },
  "schemaVersion": "3.4.14",
  "updatedAt": "2023-06-22T04:17:59.149Z",
  "networkType": "ethereum",
  "devdoc": {
    "kind": "dev",
    "methods": {},
    "version": 1
  },
  "userdoc": {
    "kind": "user",
    "methods": {
      "buy_energy(address,uint32,uint32,uint64)": {
        "notice": "to be bought. aday Day for which the offer is valid. aprice Price surcharge in millicent/kwh above market"
      }
    },
    "version": 1
  }
}