{
  "contractName": "Energy",
  "abi": [
    {
      "inputs": [],
      "stateMutability": "nonpayable",
      "type": "constructor"
    },
    {
      "anonymous": false,
      "inputs": [
        {
          "indexed": true,
          "internalType": "address",
          "name": "producer",
          "type": "address"
        },
        {
          "indexed": true,
          "internalType": "uint32",
          "name": "day",
          "type": "uint32"
        },
        {
          "indexed": true,
          "internalType": "uint32",
          "name": "price",
          "type": "uint32"
        },
        {
          "indexed": false,
          "internalType": "uint64",
          "name": "energy",
          "type": "uint64"
        }
      ],
      "name": "BidMade",
      "type": "event"
    },
    {
      "anonymous": false,
      "inputs": [
        {
          "indexed": true,
          "internalType": "address",
          "name": "producer",
          "type": "address"
        },
        {
          "indexed": true,
          "internalType": "uint32",
          "name": "day",
          "type": "uint32"
        },
        {
          "indexed": true,
          "internalType": "uint32",
          "name": "price",
          "type": "uint32"
        },
        {
          "indexed": false,
          "internalType": "uint64",
          "name": "energy",
          "type": "uint64"
        }
      ],
      "name": "BidRevoked",
      "type": "event"
    },
    {
      "anonymous": false,
      "inputs": [
        {
          "indexed": true,
          "internalType": "address",
          "name": "producer",
          "type": "address"
        },
        {
          "indexed": true,
          "internalType": "uint32",
          "name": "day",
          "type": "uint32"
        },
        {
          "indexed": false,
          "internalType": "uint32",
          "name": "price",
          "type": "uint32"
        },
        {
          "indexed": false,
          "internalType": "uint64",
          "name": "energy",
          "type": "uint64"
        },
        {
          "indexed": true,
          "internalType": "uint32",
          "name": "userID",
          "type": "uint32"
        }
      ],
      "name": "Deal",
      "type": "event"
    },
    {
      "anonymous": false,
      "inputs": [
        {
          "indexed": true,
          "internalType": "address",
          "name": "producer",
          "type": "address"
        },
        {
          "indexed": true,
          "internalType": "uint32",
          "name": "day",
          "type": "uint32"
        },
        {
          "indexed": false,
          "internalType": "uint32",
          "name": "price",
          "type": "uint32"
        },
        {
          "indexed": false,
          "internalType": "uint64",
          "name": "energy",
          "type": "uint64"
        },
        {
          "indexed": true,
          "internalType": "uint32",
          "name": "userID",
          "type": "uint32"
        }
      ],
      "name": "DealRevoked",
      "type": "event"
    },
    {
      "anonymous": false,
      "inputs": [
        {
          "indexed": true,
          "internalType": "address",
          "name": "consumer",
          "type": "address"
        }
      ],
      "name": "consumerDeregistered",
      "type": "event"
    },
    {
      "anonymous": false,
      "inputs": [
        {
          "indexed": true,
          "internalType": "address",
          "name": "consumer",
          "type": "address"
        }
      ],
      "name": "consumerRegistered",
      "type": "event"
    },
    {
      "anonymous": false,
      "inputs": [
        {
          "indexed": true,
          "internalType": "address",
          "name": "producer",
          "type": "address"
        }
      ],
      "name": "producerDeregistered",
      "type": "event"
    },
    {
      "anonymous": false,
      "inputs": [
        {
          "indexed": true,
          "internalType": "address",
          "name": "producer",
          "type": "address"
        }
      ],
      "name": "producerRegistered",
      "type": "event"
    },
    {
      "inputs": [
        {
          "internalType": "uint256",
          "name": "",
          "type": "uint256"
        }
      ],
      "name": "asks",
      "outputs": [
        {
          "internalType": "address",
          "name": "producer",
          "type": "address"
        },
        {
          "internalType": "uint32",
          "name": "day",
          "type": "uint32"
        },
        {
          "internalType": "uint32",
          "name": "price",
          "type": "uint32"
        },
        {
          "internalType": "uint64",
          "name": "energy",
          "type": "uint64"
        },
        {
          "internalType": "uint32",
          "name": "userID",
          "type": "uint32"
        },
        {
          "internalType": "uint64",
          "name": "timestamp",
          "type": "uint64"
        }
      ],
      "stateMutability": "view",
      "type": "function",
      "constant": true
    },
    {
      "inputs": [
        {
          "internalType": "uint32",
          "name": "",
          "type": "uint32"
        }
      ],
      "name": "asksIndex",
      "outputs": [
        {
          "internalType": "uint256",
          "name": "",
          "type": "uint256"
        }
      ],
      "stateMutability": "view",
      "type": "function",
      "constant": true
    },
    {
      "inputs": [
        {
          "internalType": "address",
          "name": "",
          "type": "address"
        }
      ],
      "name": "consumers",
      "outputs": [
        {
          "internalType": "uint32",
          "name": "",
          "type": "uint32"
        }
      ],
      "stateMutability": "view",
      "type": "function",
      "constant": true
    },
    {
      "inputs": [
        {
          "internalType": "address",
          "name": "",
          "type": "address"
        }
      ],
      "name": "producers",
      "outputs": [
        {
          "internalType": "uint256",
          "name": "",
          "type": "uint256"
        }
      ],
      "stateMutability": "view",
      "type": "function",
      "constant": true
    },
    {
      "inputs": [
        {
          "internalType": "address",
          "name": "aconsumer",
          "type": "address"
        },
        {
          "internalType": "uint32",
          "name": "auserID",
          "type": "uint32"
        },
        {
          "internalType": "uint256",
          "name": "buserEnergyBal",
          "type": "uint256"
        }
      ],
      "name": "registerConsumer",
      "outputs": [],
      "stateMutability": "nonpayable",
      "type": "function"
    },
    {
      "inputs": [
        {
          "internalType": "address",
          "name": "bproducer",
          "type": "address"
        },
        {
          "internalType": "uint256",
          "name": "buserID",
          "type": "uint256"
        },
        {
          "internalType": "uint256",
          "name": "buserEnergyBal",
          "type": "uint256"
        }
      ],
      "name": "registerProducer",
      "outputs": [],
      "stateMutability": "nonpayable",
      "type": "function"
    },
    {
      "inputs": [
        {
          "internalType": "address",
          "name": "bproducer",
          "type": "address"
        }
      ],
      "name": "deregisterProducer",
      "outputs": [],
      "stateMutability": "nonpayable",
      "type": "function"
    },
    {
      "inputs": [
        {
          "internalType": "uint32",
          "name": "aday",
          "type": "uint32"
        },
        {
          "internalType": "uint32",
          "name": "apriceMax",
          "type": "uint32"
        },
        {
          "internalType": "uint32",
          "name": "apriceMin",
          "type": "uint32"
        },
        {
          "internalType": "uint64",
          "name": "amaxenergy",
          "type": "uint64"
        },
        {
          "internalType": "uint64",
          "name": "aminenergy",
          "type": "uint64"
        },
        {
          "internalType": "uint64",
          "name": "atimestamp",
          "type": "uint64"
        }
      ],
      "name": "offer_energy",
      "outputs": [],
      "stateMutability": "nonpayable",
      "type": "function"
    },
    {
      "inputs": [
        {
          "internalType": "uint256",
          "name": "idx",
          "type": "uint256"
        }
      ],
      "name": "showBids",
      "outputs": [
        {
          "internalType": "address",
          "name": "producer",
          "type": "address"
        },
        {
          "internalType": "uint32",
          "name": "day",
          "type": "uint32"
        },
        {
          "internalType": "uint32",
          "name": "maxprice",
          "type": "uint32"
        },
        {
          "internalType": "uint64",
          "name": "energy",
          "type": "uint64"
        },
        {
          "internalType": "uint64",
          "name": "timestamp",
          "type": "uint64"
        }
      ],
      "stateMutability": "view",
      "type": "function",
      "constant": true
    },
    {
      "inputs": [
        {
          "internalType": "address",
          "name": "aproducer",
          "type": "address"
        },
        {
          "internalType": "uint32",
          "name": "aday",
          "type": "uint32"
        }
      ],
      "name": "getBidByProducerAndDay",
      "outputs": [
        {
          "internalType": "address",
          "name": "producer",
          "type": "address"
        },
        {
          "internalType": "uint32",
          "name": "day",
          "type": "uint32"
        },
        {
          "internalType": "uint32",
          "name": "maxprice",
          "type": "uint32"
        },
        {
          "internalType": "uint64",
          "name": "energy",
          "type": "uint64"
        },
        {
          "internalType": "uint64",
          "name": "timestamp",
          "type": "uint64"
        }
      ],
      "stateMutability": "view",
      "type": "function",
      "constant": true
    },
    {
      "inputs": [
        {
          "internalType": "uint32",
          "name": "idx",
          "type": "uint32"
        }
      ],
      "name": "getBidById",
      "outputs": [
        {
          "internalType": "address",
          "name": "producer",
          "type": "address"
        },
        {
          "internalType": "uint32",
          "name": "day",
          "type": "uint32"
        },
        {
          "internalType": "uint32",
          "name": "maxprice",
          "type": "uint32"
        },
        {
          "internalType": "uint64",
          "name": "energy",
          "type": "uint64"
        },
        {
          "internalType": "uint64",
          "name": "timestamp",
          "type": "uint64"
        }
      ],
      "stateMutability": "view",
      "type": "function",
      "constant": true
    },
    {
      "inputs": [
        {
          "internalType": "uint32",
          "name": "aday",
          "type": "uint32"
        }
      ],
      "name": "getMinPrice",
      "outputs": [
        {
          "internalType": "uint32",
          "name": "",
          "type": "uint32"
        }
      ],
      "stateMutability": "view",
      "type": "function",
      "constant": true
    },
    {
      "inputs": [],
      "name": "getBidsCount",
      "outputs": [
        {
          "internalType": "uint256",
          "name": "count",
          "type": "uint256"
        }
      ],
      "stateMutability": "view",
      "type": "function",
      "constant": true
    },
    {
      "inputs": [
        {
          "internalType": "address",
          "name": "aproducer",
          "type": "address"
        },
        {
          "internalType": "uint32",
          "name": "aday",
          "type": "uint32"
        },
        {
          "internalType": "uint32",
          "name": "aprice",
          "type": "uint32"
        },
        {
          "internalType": "uint64",
          "name": "aenergy",
          "type": "uint64"
        }
      ],
      "name": "buy_energy",
      "outputs": [],
      "stateMutability": "payable",
      "type": "function",
      "payable": true
    },
    {
      "inputs": [],
      "name": "getAsksCount",
      "outputs": [
        {
          "internalType": "uint256",
          "name": "count",
          "type": "uint256"
        }
      ],
      "stateMutability": "view",
      "type": "function",
      "constant": true
    },
    {
      "inputs": [
        {
          "internalType": "uint32",
          "name": "userID",
          "type": "uint32"
        }
      ],
      "name": "getAskUserID",
      "outputs": [
        {
          "internalType": "address",
          "name": "producer",
          "type": "address"
        },
        {
          "internalType": "uint32",
          "name": "day",
          "type": "uint32"
        },
        {
          "internalType": "uint32",
          "name": "price",
          "type": "uint32"
        },
        {
          "internalType": "uint64",
          "name": "energy",
          "type": "uint64"
        }
      ],
      "stateMutability": "view",
      "type": "function",
      "constant": true
    }
  ],
  "bytecode": "0x608060405234801561001057600080fd5b50336000806101000a81548173ffffffffffffffffffffffffffffffffffffffff021916908373ffffffffffffffffffffffffffffffffffffffff160217905550612604806100606000396000f3fe6080604052600436106100f35760003560e01c80639ed81bc91161008a578063bc7cf83011610059578063bc7cf83014610377578063e45375ae146103a0578063e4646f5b146103e1578063fbf3ebe01461040a576100f3565b80639ed81bc9146102cc578063a64276b5146102f5578063a77674a71461031e578063bbae30c91461033a576100f3565b806326324eff116100c657806326324eff146101f857806327c1660514610235578063542900651461027657806363505ae8146102a1576100f3565b80630b0c1493146100f85780630bf536681461013a57806310663fc8146101775780631c032ebf146101b8575b600080fd5b34801561010457600080fd5b5061011f600480360381019061011a9190611f3d565b610447565b60405161013196959493929190611fed565b60405180910390f35b34801561014657600080fd5b50610161600480360381019061015c919061207a565b61050b565b60405161016e91906120a7565b60405180910390f35b34801561018357600080fd5b5061019e60048036038101906101999190611f3d565b61052e565b6040516101af9594939291906120c2565b60405180910390f35b3480156101c457600080fd5b506101df60048036038101906101da9190612141565b61066f565b6040516101ef949392919061216e565b60405180910390f35b34801561020457600080fd5b5061021f600480360381019061021a919061207a565b6107e2565b60405161022c91906121c2565b60405180910390f35b34801561024157600080fd5b5061025c600480360381019061025791906121dd565b6107fa565b60405161026d9594939291906120c2565b60405180910390f35b34801561028257600080fd5b5061028b61099d565b60405161029891906121c2565b60405180910390f35b3480156102ad57600080fd5b506102b66109aa565b6040516102c391906121c2565b60405180910390f35b3480156102d857600080fd5b506102f360048036038101906102ee919061207a565b6109b7565b005b34801561030157600080fd5b5061031c60048036038101906103179190612249565b610a98565b005b610338600480360381019061033391906122d6565b6111ef565b005b34801561034657600080fd5b50610361600480360381019061035c9190612141565b6112b5565b60405161036e91906121c2565b60405180910390f35b34801561038357600080fd5b5061039e6004803603810190610399919061233d565b6112cd565b005b3480156103ac57600080fd5b506103c760048036038101906103c29190612141565b611466565b6040516103d89594939291906120c2565b60405180910390f35b3480156103ed57600080fd5b5061040860048036038101906104039190612390565b6115c5565b005b34801561041657600080fd5b50610431600480360381019061042c9190612141565b6116fa565b60405161043e91906120a7565b60405180910390f35b6005818154811061045757600080fd5b90600052602060002090600202016000915090508060000160009054906101000a900473ffffffffffffffffffffffffffffffffffffffff16908060000160149054906101000a900463ffffffff16908060000160189054906101000a900463ffffffff16908060010160009054906101000a900467ffffffffffffffff16908060010160089054906101000a900463ffffffff169080600101600c9054906101000a900467ffffffffffffffff16905086565b60016020528060005260406000206000915054906101000a900463ffffffff1681565b60008060008060006004868154811061054a576105496123e3565b5b906000526020600020906002020160000160009054906101000a900473ffffffffffffffffffffffffffffffffffffffff16600487815481106105905761058f6123e3565b5b906000526020600020906002020160000160149054906101000a900463ffffffff16600488815481106105c6576105c56123e3565b5b906000526020600020906002020160000160189054906101000a900463ffffffff16600489815481106105fc576105fb6123e3565b5b906000526020600020906002020160010160009054906101000a900467ffffffffffffffff1660048a81548110610636576106356123e3565b5b906000526020600020906002020160010160109054906101000a900467ffffffffffffffff169450945094509450945091939590929450565b6000806000806000600760008763ffffffff1663ffffffff1681526020019081526020016000205490508563ffffffff16600582815481106106b4576106b36123e3565b5b906000526020600020906002020160010160089054906101000a900463ffffffff1663ffffffff16146106e657600080fd5b600581815481106106fa576106f96123e3565b5b906000526020600020906002020160000160009054906101000a900473ffffffffffffffffffffffffffffffffffffffff16600582815481106107405761073f6123e3565b5b906000526020600020906002020160000160149054906101000a900463ffffffff1660058381548110610776576107756123e3565b5b906000526020600020906002020160000160189054906101000a900463ffffffff16600584815481106107ac576107ab6123e3565b5b906000526020600020906002020160010160009054906101000a900467ffffffffffffffff169450945094509450509193509193565b60026020528060005260406000206000915090505481565b600080600080600080600660008973ffffffffffffffffffffffffffffffffffffffff1673ffffffffffffffffffffffffffffffffffffffff16815260200190815260200160002060008863ffffffff1663ffffffff16815260200190815260200160002054905060048181548110610876576108756123e3565b5b906000526020600020906002020160000160009054906101000a900473ffffffffffffffffffffffffffffffffffffffff16600482815481106108bc576108bb6123e3565b5b906000526020600020906002020160000160149054906101000a900463ffffffff16600483815481106108f2576108f16123e3565b5b906000526020600020906002020160000160189054906101000a900463ffffffff1660048481548110610928576109276123e3565b5b906000526020600020906002020160010160009054906101000a900467ffffffffffffffff1660048581548110610962576109616123e3565b5b906000526020600020906002020160010160109054906101000a900467ffffffffffffffff1695509550955095509550509295509295909350565b6000600580549050905090565b6000600480549050905090565b60008054906101000a900473ffffffffffffffffffffffffffffffffffffffff1673ffffffffffffffffffffffffffffffffffffffff163373ffffffffffffffffffffffffffffffffffffffff1614610a0f57600080fd5b8073ffffffffffffffffffffffffffffffffffffffff167f0bb6d68f109745f7ae353e3b90fff6fb8245c34cca44f18d9dfa00e4d705fa6460405160405180910390a2600260008273ffffffffffffffffffffffffffffffffffffffff1673ffffffffffffffffffffffffffffffffffffffff1681526020019081526020016000206000905550565b6000600260003373ffffffffffffffffffffffffffffffffffffffff1673ffffffffffffffffffffffffffffffffffffffff1681526020019081526020016000205411610ae457600080fd5b60016103e8610af39190612441565b6103e8610b009190612441565b67ffffffffffffffff168267ffffffffffffffff161015610b2057600080fd5b8267ffffffffffffffff16600360003373ffffffffffffffffffffffffffffffffffffffff1673ffffffffffffffffffffffffffffffffffffffff168152602001908152602001600020541015610b7657600080fd5b6000600660003373ffffffffffffffffffffffffffffffffffffffff1673ffffffffffffffffffffffffffffffffffffffff16815260200190815260200160002060008863ffffffff1663ffffffff16815260200190815260200160002054905080600480549050118015610c5b57503373ffffffffffffffffffffffffffffffffffffffff1660048281548110610c1157610c106123e3565b5b906000526020600020906002020160000160009054906101000a900473ffffffffffffffffffffffffffffffffffffffff1673ffffffffffffffffffffffffffffffffffffffff16145b8015610ca757508663ffffffff1660048281548110610c7d57610c7c6123e3565b5b906000526020600020906002020160000160149054906101000a900463ffffffff1663ffffffff16145b15610e4a5760048181548110610cc057610cbf6123e3565b5b906000526020600020906002020160010160109054906101000a900467ffffffffffffffff1667ffffffffffffffff168267ffffffffffffffff1611610d0557600080fd5b60048181548110610d1957610d186123e3565b5b906000526020600020906002020160000160189054906101000a900463ffffffff1663ffffffff1660048281548110610d5557610d546123e3565b5b906000526020600020906002020160000160149054906101000a900463ffffffff1663ffffffff1660048381548110610d9157610d906123e3565b5b906000526020600020906002020160000160009054906101000a900473ffffffffffffffffffffffffffffffffffffffff1673ffffffffffffffffffffffffffffffffffffffff167f664a04e305e35425afb90c28227063c0b0b433a97155f2492f415af0bd4fea3460048581548110610e0e57610e0d6123e3565b5b906000526020600020906002020160010160009054906101000a900467ffffffffffffffff16604051610e419190612483565b60405180910390a45b600480549050905080600660003373ffffffffffffffffffffffffffffffffffffffff1673ffffffffffffffffffffffffffffffffffffffff16815260200190815260200160002060008963ffffffff1663ffffffff1681526020019081526020016000208190555060046040518060e001604052803373ffffffffffffffffffffffffffffffffffffffff1681526020018963ffffffff1681526020018863ffffffff1681526020018763ffffffff1681526020018667ffffffffffffffff1681526020018567ffffffffffffffff1681526020018467ffffffffffffffff16815250908060018154018082558091505060019003906000526020600020906002020160009091909190915060008201518160000160006101000a81548173ffffffffffffffffffffffffffffffffffffffff021916908373ffffffffffffffffffffffffffffffffffffffff16021790555060208201518160000160146101000a81548163ffffffff021916908363ffffffff16021790555060408201518160000160186101000a81548163ffffffff021916908363ffffffff160217905550606082015181600001601c6101000a81548163ffffffff021916908363ffffffff16021790555060808201518160010160006101000a81548167ffffffffffffffff021916908367ffffffffffffffff16021790555060a08201518160010160086101000a81548167ffffffffffffffff021916908367ffffffffffffffff16021790555060c08201518160010160106101000a81548167ffffffffffffffff021916908367ffffffffffffffff1602179055505050600481815481106110b6576110b56123e3565b5b906000526020600020906002020160000160189054906101000a900463ffffffff1663ffffffff16600482815481106110f2576110f16123e3565b5b906000526020600020906002020160000160149054906101000a900463ffffffff1663ffffffff166004838154811061112e5761112d6123e3565b5b906000526020600020906002020160000160009054906101000a900473ffffffffffffffffffffffffffffffffffffffff1673ffffffffffffffffffffffffffffffffffffffff167f35c89b54d5468d95ecdd889b5dcd7245be0bee1a5dfbe384adc4e8f547f31fd7600485815481106111ab576111aa6123e3565b5b906000526020600020906002020160010160009054906101000a900467ffffffffffffffff166040516111de9190612483565b60405180910390a450505050505050565b6000600160003373ffffffffffffffffffffffffffffffffffffffff1673ffffffffffffffffffffffffffffffffffffffff16815260200190815260200160002060009054906101000a900463ffffffff1663ffffffff161161125157600080fd5b6112af84848484600160003373ffffffffffffffffffffffffffffffffffffffff1673ffffffffffffffffffffffffffffffffffffffff16815260200190815260200160002060009054906101000a900463ffffffff1660006117e6565b50505050565b60076020528060005260406000206000915090505481565b60008054906101000a900473ffffffffffffffffffffffffffffffffffffffff1673ffffffffffffffffffffffffffffffffffffffff163373ffffffffffffffffffffffffffffffffffffffff161461132557600080fd5b80600360008573ffffffffffffffffffffffffffffffffffffffff1673ffffffffffffffffffffffffffffffffffffffff1681526020019081526020016000208190555060008263ffffffff16146113bf578273ffffffffffffffffffffffffffffffffffffffff167faba09d491d88bf0ee0f8fc8f0168c0178e7210f18b5f524e052a72f550c4474a60405160405180910390a2611403565b8273ffffffffffffffffffffffffffffffffffffffff167ffa23c8d074a5c45120a1bac6ecf198fd3fa6f45dabe40a18dfa423f69d52c30c60405160405180910390a25b81600160008573ffffffffffffffffffffffffffffffffffffffff1673ffffffffffffffffffffffffffffffffffffffff16815260200190815260200160002060006101000a81548163ffffffff021916908363ffffffff160217905550505050565b600080600080600060048663ffffffff1681548110611488576114876123e3565b5b906000526020600020906002020160000160009054906101000a900473ffffffffffffffffffffffffffffffffffffffff1660048763ffffffff16815481106114d4576114d36123e3565b5b906000526020600020906002020160000160149054906101000a900463ffffffff1660048863ffffffff16815481106115105761150f6123e3565b5b906000526020600020906002020160000160189054906101000a900463ffffffff1660048963ffffffff168154811061154c5761154b6123e3565b5b906000526020600020906002020160010160009054906101000a900467ffffffffffffffff1660048a63ffffffff168154811061158c5761158b6123e3565b5b906000526020600020906002020160010160109054906101000a900467ffffffffffffffff169450945094509450945091939590929450565b60008054906101000a900473ffffffffffffffffffffffffffffffffffffffff1673ffffffffffffffffffffffffffffffffffffffff163373ffffffffffffffffffffffffffffffffffffffff161461161d57600080fd5b8273ffffffffffffffffffffffffffffffffffffffff167f769268709e630d5b24d4c651adeae2d7a75c3dd7c3876275233e21570be22fd460405160405180910390a26000821161166d57600080fd5b81600260008573ffffffffffffffffffffffffffffffffffffffff1673ffffffffffffffffffffffffffffffffffffffff1681526020019081526020016000208190555080600360008573ffffffffffffffffffffffffffffffffffffffff1673ffffffffffffffffffffffffffffffffffffffff16815260200190815260200160002081905550505050565b600080600260003373ffffffffffffffffffffffffffffffffffffffff1673ffffffffffffffffffffffffffffffffffffffff168152602001908152602001600020541161174757600080fd5b6000600660003373ffffffffffffffffffffffffffffffffffffffff1673ffffffffffffffffffffffffffffffffffffffff16815260200190815260200160002060008463ffffffff1663ffffffff168152602001908152602001600020549050600481815481106117bc576117bb6123e3565b5b9060005260206000209060020201600001601c9054906101000a900463ffffffff16915050919050565b6000600660008873ffffffffffffffffffffffffffffffffffffffff1673ffffffffffffffffffffffffffffffffffffffff16815260200190815260200160002060008763ffffffff1663ffffffff168152602001908152602001600020549050806004805490501180156118cb57508673ffffffffffffffffffffffffffffffffffffffff1660048281548110611881576118806123e3565b5b906000526020600020906002020160000160009054906101000a900473ffffffffffffffffffffffffffffffffffffffff1673ffffffffffffffffffffffffffffffffffffffff16145b801561191757508563ffffffff16600482815481106118ed576118ec6123e3565b5b906000526020600020906002020160000160149054906101000a900463ffffffff1663ffffffff16145b15611ea2578463ffffffff1660048281548110611937576119366123e3565b5b906000526020600020906002020160000160189054906101000a900463ffffffff1663ffffffff16101580156119ae57508463ffffffff1660048281548110611983576119826123e3565b5b9060005260206000209060020201600001601c9054906101000a900463ffffffff1663ffffffff1611155b6119b757600080fd5b8367ffffffffffffffff16600482815481106119d6576119d56123e3565b5b906000526020600020906002020160010160009054906101000a900467ffffffffffffffff1667ffffffffffffffff1610158015611a5957508367ffffffffffffffff1660048281548110611a2e57611a2d6123e3565b5b9060005260206000209060020201600001601c9054906101000a900463ffffffff1663ffffffff1611155b611a6257600080fd5b600580549050600760008563ffffffff1663ffffffff1681526020019081526020016000208190555060056040518060c001604052808973ffffffffffffffffffffffffffffffffffffffff1681526020018863ffffffff1681526020018763ffffffff1681526020018667ffffffffffffffff1681526020018563ffffffff1681526020018467ffffffffffffffff16815250908060018154018082558091505060019003906000526020600020906002020160009091909190915060008201518160000160006101000a81548173ffffffffffffffffffffffffffffffffffffffff021916908373ffffffffffffffffffffffffffffffffffffffff16021790555060208201518160000160146101000a81548163ffffffff021916908363ffffffff16021790555060408201518160000160186101000a81548163ffffffff021916908363ffffffff16021790555060608201518160010160006101000a81548167ffffffffffffffff021916908367ffffffffffffffff16021790555060808201518160010160086101000a81548163ffffffff021916908363ffffffff16021790555060a082015181600101600c6101000a81548167ffffffffffffffff021916908367ffffffffffffffff16021790555050508263ffffffff168663ffffffff168873ffffffffffffffffffffffffffffffffffffffff167f1d809c14ce26d314cb611c6eb2d07dcbce4c1a76cfea828af40737b78dcb60708888604051611c9192919061249e565b60405180910390a46000600360003373ffffffffffffffffffffffffffffffffffffffff1673ffffffffffffffffffffffffffffffffffffffff1681526020019081526020016000205490508467ffffffffffffffff16600360008a73ffffffffffffffffffffffffffffffffffffffff1673ffffffffffffffffffffffffffffffffffffffff1681526020019081526020016000206000828254611d3691906124c7565b925050819055508467ffffffffffffffff16600360003373ffffffffffffffffffffffffffffffffffffffff1673ffffffffffffffffffffffffffffffffffffffff1681526020019081526020016000206000828254611d9691906124fb565b925050819055508467ffffffffffffffff1681600360003373ffffffffffffffffffffffffffffffffffffffff1673ffffffffffffffffffffffffffffffffffffffff16815260200190815260200160002054611df391906124c7565b14611e33576040517f08c379a0000000000000000000000000000000000000000000000000000000008152600401611e2a906125ae565b60405180910390fd5b611e3c88611eb0565b600660008973ffffffffffffffffffffffffffffffffffffffff1673ffffffffffffffffffffffffffffffffffffffff16815260200190815260200160002060008863ffffffff1663ffffffff1681526020019081526020016000206000905550611ea7565b600080fd5b50505050505050565b8073ffffffffffffffffffffffffffffffffffffffff166108fc671bc16d674ec800009081150290604051600060405180830381858888f19350505050158015611efe573d6000803e3d6000fd5b5050565b600080fd5b6000819050919050565b611f1a81611f07565b8114611f2557600080fd5b50565b600081359050611f3781611f11565b92915050565b600060208284031215611f5357611f52611f02565b5b6000611f6184828501611f28565b91505092915050565b600073ffffffffffffffffffffffffffffffffffffffff82169050919050565b6000611f9582611f6a565b9050919050565b611fa581611f8a565b82525050565b600063ffffffff82169050919050565b611fc481611fab565b82525050565b600067ffffffffffffffff82169050919050565b611fe781611fca565b82525050565b600060c0820190506120026000830189611f9c565b61200f6020830188611fbb565b61201c6040830187611fbb565b6120296060830186611fde565b6120366080830185611fbb565b61204360a0830184611fde565b979650505050505050565b61205781611f8a565b811461206257600080fd5b50565b6000813590506120748161204e565b92915050565b6000602082840312156120905761208f611f02565b5b600061209e84828501612065565b91505092915050565b60006020820190506120bc6000830184611fbb565b92915050565b600060a0820190506120d76000830188611f9c565b6120e46020830187611fbb565b6120f16040830186611fbb565b6120fe6060830185611fde565b61210b6080830184611fde565b9695505050505050565b61211e81611fab565b811461212957600080fd5b50565b60008135905061213b81612115565b92915050565b60006020828403121561215757612156611f02565b5b60006121658482850161212c565b91505092915050565b60006080820190506121836000830187611f9c565b6121906020830186611fbb565b61219d6040830185611fbb565b6121aa6060830184611fde565b95945050505050565b6121bc81611f07565b82525050565b60006020820190506121d760008301846121b3565b92915050565b600080604083850312156121f4576121f3611f02565b5b600061220285828601612065565b92505060206122138582860161212c565b9150509250929050565b61222681611fca565b811461223157600080fd5b50565b6000813590506122438161221d565b92915050565b60008060008060008060c0878903121561226657612265611f02565b5b600061227489828a0161212c565b965050602061228589828a0161212c565b955050604061229689828a0161212c565b94505060606122a789828a01612234565b93505060806122b889828a01612234565b92505060a06122c989828a01612234565b9150509295509295509295565b600080600080608085870312156122f0576122ef611f02565b5b60006122fe87828801612065565b945050602061230f8782880161212c565b93505060406123208782880161212c565b925050606061233187828801612234565b91505092959194509250565b60008060006060848603121561235657612355611f02565b5b600061236486828701612065565b93505060206123758682870161212c565b925050604061238686828701611f28565b9150509250925092565b6000806000606084860312156123a9576123a8611f02565b5b60006123b786828701612065565b93505060206123c886828701611f28565b92505060406123d986828701611f28565b9150509250925092565b7f4e487b7100000000000000000000000000000000000000000000000000000000600052603260045260246000fd5b7f4e487b7100000000000000000000000000000000000000000000000000000000600052601160045260246000fd5b600061244c82611fca565b915061245783611fca565b92508167ffffffffffffffff048311821515161561247857612477612412565b5b828202905092915050565b60006020820190506124986000830184611fde565b92915050565b60006040820190506124b36000830185611fbb565b6124c06020830184611fde565b9392505050565b60006124d282611f07565b91506124dd83611f07565b9250828210156124f0576124ef612412565b5b828203905092915050565b600061250682611f07565b915061251183611f07565b9250827fffffffffffffffffffffffffffffffffffffffffffffffffffffffffffffffff0382111561254657612545612412565b5b828201905092915050565b600082825260208201905092915050565b7f456e65726779206973206e6f74207472616e7366657265642079657400000000600082015250565b6000612598601c83612551565b91506125a382612562565b602082019050919050565b600060208201905081810360008301526125c78161258b565b905091905056fea264697066735822122006bab2f31d58d2be0b02a33035b392d1eed75a1f41d9b6c9814970f1401155ad64736f6c634300080d0033",
  "immutableReferences": {},
  "source": "//SPDX-License-Identifier:GPL-3.0\r\npragma solidity ^0.8.13;\r\n\r\ncontract Energy {\r\nconstructor() { owner = msg. sender; }\r\naddress owner;\r\nmodifier onlyOwner {\r\n\trequire(msg.sender == owner);\r\n\t_;\r\n}\r\n\r\n\r\nevent consumerRegistered(address indexed consumer);\r\nevent consumerDeregistered (address indexed consumer);\r\n\r\n// map address to userID\r\nmapping(address => uint32) public consumers;\r\n\r\nmodifier onlyRegisteredConsumers {\r\nrequire (consumers[msg. sender] > 0);\r\n_;\r\n}\r\n\r\n//I Allowed the owner of the address aconsumer.address()\r\n//to make transactions on behalf of user id \"auserID*\r\n//Register address aconsumer to belong to userID\r\n//auserID. Addresses can be delisted (\"unregistered\") by \r\n//setting the userID auserID to zero.\r\nfunction registerConsumer (address aconsumer, uint32 auserID, uint buserEnergyBal) onlyOwner external {\r\n/////////\\\\\\\\\\\\\\\r\nuserEnergyBal [aconsumer] = buserEnergyBal;///////////\\\\\\\\\\\\\\\\\\\\\r\n/////////\\\\\\\\\\\\\\\\\r\nif (auserID != 0) {\r\nemit consumerRegistered(aconsumer);\r\n} else {\r\nemit consumerDeregistered (aconsumer);\r\n}\r\nconsumers [aconsumer] = auserID;\r\n}\r\n\r\n// A contract that allows producer addresses to be registered.\r\n\r\nevent producerRegistered(address indexed producer);//44\r\nevent producerDeregistered (address indexed producer);\r\n//map address to producerID \"is a registered producer\" \r\nmapping(address => uint) public producers;////////////\r\nmapping(address => uint) internal userEnergyBal;/////////////\r\n\r\nmodifier onlyRegisteredProducers {\r\nrequire (producers[msg. sender]>0);\r\n_;\r\n}\r\n//// @notice Allow the owner of address aproducer.(address) to\r\n//act as a producer (by offering energy).\r\nfunction registerProducer(address bproducer,uint buserID, uint buserEnergyBal) onlyOwner external {\r\nemit producerRegistered(bproducer);\r\nrequire(buserID>0);//////////////\r\nproducers [bproducer] = buserID;///////////\r\n/////////\\\\\\\\\\\\\\\r\nuserEnergyBal [bproducer] = buserEnergyBal;///////////\\\\\\\\\\\\\\\\\\\\\r\n/////////\\\\\\\\\\\\\\\\\r\n////@note ID can not be zero\r\n}\r\n\r\n////@notice Cease alLowing the owner of address\r\n//aproducer. Address()' to act as a producer (by offering energy).\r\nfunction deregisterProducer (address bproducer) onlyOwner external {\r\nemit producerDeregistered(bproducer);\r\ndelete(producers[bproducer]);////////////\r\n}\r\n\r\n\r\nevent BidMade(address indexed producer, uint32 indexed day, uint32 indexed price, uint64 energy); \r\nevent BidRevoked (address indexed producer, uint32 indexed day, uint32 indexed price, uint64 energy);\r\nevent Deal (address indexed producer, uint32 indexed day, uint32 price, uint64 energy, uint32 indexed userID);\r\nevent DealRevoked (address indexed producer, uint32 indexed day, uint32 price, uint64 energy, uint32 indexed userID); //77\r\n\r\n//78\r\nuint64 constant mWh = 1;\r\nuint64 constant Wh = 1000*mWh;\r\nuint64 constant kWh = 1000 * Wh;\r\nuint64 constant MWh = 1000 * kWh;\r\nuint64 constant GWh = 1000 * MWh;\r\nuint64 constant TWh = 1000 * GWh;\r\nuint64 constant maxEnergy = 18446 * GWh;\r\n\r\nstruct Bid {\r\n    //producer's public key\r\n    address producer;\r\n    \r\n    //day for which the offer is valid\r\n    uint32 day;\r\n\r\n     //price vs market price\r\n     uint32 maxprice;\r\n     uint32 minprice;\r\n\r\n     //energy to sell\r\n     uint64 maxenergy;\r\n     uint64 minenergy;\r\n\r\n     //timestamp for when the offer was submitted\r\n     uint64 timestamp;\r\n}\r\n\r\nstruct Ask {\r\n    address producer;\r\n    uint32 day; \r\n    uint32 price; \r\n    uint64 energy; \r\n    uint32 userID; \r\n    uint64 timestamp;\r\n}\r\n\r\n//bids (for energy: offering energy for sale)\r\nBid[] private bids;\r\n\r\n//asks (for energy: demanding energy to buy)\r\nAsk[] public asks;\r\n\r\n//map (address, day) to index into bids \r\n//maps a producer's public key and the day for which the offer is valid \r\n//to the index of the corresponding Bid object in the bids array.\r\nmapping (address => mapping(uint32 => uint)) private bidsIndex;\r\n\r\n//map (userid) to index into asks [last take written]\r\n//maps a user ID to the index of the corresponding Ask object in the asks array.\r\nmapping (uint32 => uint) public asksIndex;\r\n\r\n//aday Day for which the offer is valid.\r\n//aprice price surcharge in millicent/kwh above market price\r\n//aenergy Energy to be offered in mwh\r\n//atimestamp UNIX time (seconds since 1970) in nanoseconds\r\nfunction offer_energy (uint32 aday, uint32 apriceMax, uint32 apriceMin, uint64 amaxenergy, uint64 aminenergy, uint64 atimestamp) onlyRegisteredProducers external {\r\n//require a minimum offer of 1 kWh\r\nrequire (aminenergy >= kWh);\r\n///////\\\\\\\\\\\r\nrequire (userEnergyBal[msg.sender]>=amaxenergy);///////////\\\\\\\\\\\\\\\\\\\\\r\n///////\\\\\\\\\\\\\r\n\r\nuint idx = bidsIndex[msg.sender][aday];\r\n//idx is either 0 or such that bids[idx] has the right producer and day (or both 0 and...) \r\n\r\n//if the bids array's length is greater than index number and the address at that index is a producer\r\n//and the day the address bid \r\nif ((bids.length > idx) && (bids[idx].producer == msg.sender) && (bids[idx].day == aday))\r\n{\r\n//we will only let newer timestamps affect the stored data i.e. unix timestamp\r\nrequire(atimestamp > bids[idx].timestamp);\r\nemit BidRevoked(bids[idx].producer, bids[idx].day, bids[idx].maxprice, bids[idx].maxenergy);\r\n}\r\n// create entry with new index idx for (msg. sender, aday)\r\nidx = bids.length;////by this the mapping index starts from 1 not zero\r\nbidsIndex[msg.sender][aday] = idx;\r\nbids.push(Bid({\r\n    producer: msg.sender, \r\n    day: aday, \r\n    maxprice: apriceMax,\r\n    minprice: apriceMin,\r\n    minenergy: aminenergy,\r\n    maxenergy: amaxenergy, \r\n    timestamp: atimestamp\r\n}));\r\nemit BidMade(bids[idx].producer, bids[idx].day, bids[idx].maxprice, bids[idx].maxenergy) ;\r\n}\r\n\r\n//can see the bids by giving the index number of the bids array\r\nfunction showBids(uint idx) public view returns (address producer,uint32 day,uint32 maxprice,uint64 energy,uint64 timestamp){\r\n    return (bids[idx].producer, bids[idx].day, bids[idx].maxprice, bids[idx].maxenergy, bids[idx].timestamp) ;\r\n}\r\n\r\n//can get the bids by giving the address and day\r\n// Anyone call this function, he'll retrieve all data without minimum price value.\r\nfunction getBidByProducerAndDay(address aproducer, uint32 aday) external view returns(address producer,uint32 day,uint32 maxprice,uint64 energy,uint64 timestamp) {\r\n    uint idx = bidsIndex[aproducer][aday];\r\n    return (bids[idx].producer, bids[idx].day, bids[idx].maxprice, bids[idx].maxenergy, bids[idx].timestamp) ;\r\n}\r\n\r\nfunction getBidById(uint32 idx) external view returns(address producer,uint32 day,uint32 maxprice,uint64 energy,uint64 timestamp){\r\n    return (bids[idx].producer, bids[idx].day, bids[idx].maxprice, bids[idx].maxenergy, bids[idx].timestamp) ;\r\n}\r\n\r\n//the minimum value of any bid can be seen by a producer\r\n// Restrict access only producer to access the minimum price of a specific address in a mapping\r\nfunction getMinPrice(uint32 aday) onlyRegisteredProducers external view returns(uint32) {\r\n    uint idx = bidsIndex[msg.sender][aday];\r\n    return (bids[idx].minprice);\r\n}\r\n\r\nfunction getBidsCount () external view returns (uint count) {\r\nreturn bids.length;\r\n}\r\n\r\n/////////////////\r\n// called by the user id provided by the owner and called by owner on behalf pf consumer\r\n// function buy_energy (address aproducer, uint32 aday, uint32 aprice, uint64 aenergy, uint32 auserID, uint64 atimestamp) onlyOwner external{\r\n// buy_energy_core(aproducer, aday, aprice, aenergy, auserID, atimestamp);\r\n// }\r\n////////////////\r\n\r\n//// aproducer Address of the producer offering the energy\r\n///to be bought.\r\n///aday Day for which the offer is valid.\r\n/// aprice Price surcharge in millicent/kwh above market\r\n////price\r\n////aenergy Energy to be offered in mwh\r\n\r\n//called by the id that is got from the consumers map and called by the consumer itself\r\nfunction buy_energy (address aproducer, uint32 aday, uint32 aprice, uint64 aenergy) onlyRegisteredConsumers external payable {\r\nbuy_energy_core(aproducer, aday, aprice, aenergy, consumers[msg. sender], 0);\r\n}\r\n\r\nfunction buy_energy_core(address aproducer, uint32 aday, uint32 aprice, uint64 aenergy, uint32 auserID, uint64 atimestamp) internal {\r\n//find offer by producer (aproducer) for day (aday), or zero\r\nuint idx = bidsIndex[aproducer][aday];\r\n\r\n//if the offer exists...\r\nif ((bids.length > idx) && (bids [idx].producer == aproducer) && (bids [idx].day == aday)) {\r\n//and has the right price...\r\nrequire(bids[idx].maxprice >=aprice && bids[idx].minprice<=aprice);\r\nrequire(bids[idx].maxenergy >=aenergy && bids[idx].minprice<=aenergy);\r\n\r\n// todo: prevent overwriting a later choice..\r\n\r\n//...then record the customer's choice\r\nasksIndex[auserID] = asks.length;//by this the mapping index starts from 1 not zero\r\nasks.push(Ask({\r\nproducer: aproducer, \r\nday: aday, \r\nprice: aprice, \r\nenergy: aenergy, \r\nuserID: auserID,\r\ntimestamp: atimestamp\r\n}));\r\nemit Deal (aproducer, aday, aprice, aenergy, auserID);\r\n///////////////\r\n// address payable payableRecipient = payable(aproducer);\r\n// payable(payableRecipient).transfer(10);\r\n\r\n/////\\\\\\\\\\\r\nuint256 beforeBal = userEnergyBal [msg.sender];\r\nuserEnergyBal[aproducer] -= aenergy;///////////\\\\\\\\\\\\\\\\\\\\\r\nuserEnergyBal [msg.sender] += aenergy;\r\nrequire(userEnergyBal[msg.sender]-beforeBal==aenergy,\"Energy is not transfered yet\");\r\n/////\\\\\\\\\\\\\\\r\nsendEthUser(aproducer);\r\n//////////////////////\r\ndelete(bidsIndex[aproducer][aday]);\r\n} else {\r\n//the offer does not exist\r\nrevert();\r\n}\r\n}\r\n\r\nfunction sendEthUser(address _user) private {\r\n       payable(_user).transfer(2000000000000000000);\r\n    }\r\n\r\nfunction getAsksCount () external view returns (uint count) {\r\nreturn asks.length;\r\n}\r\n\r\nfunction getAskUserID(uint32 userID) external view returns(address producer, uint32 day, uint32 price, uint64 energy) {\r\nuint idx = asksIndex[userID];\r\nrequire(asks[idx].userID == userID);\r\nreturn (asks[idx].producer, asks[idx].day, asks[idx].price, asks[idx].energy);\r\n}\r\n\r\n}",
  "sourcePath": "C:\\Users\\Rahul PC\\Desktop\\Thesis\\Energy Trading using BCn\\Project8\\practice201\\contracts\\Energy.sol",
  "compiler": {
    "name": "solc",
    "version": "0.8.13+commit.abaa5c0e.Emscripten.clang"
  },
  "schemaVersion": "3.4.14",
  "updatedAt": "2023-05-30T10:31:58.949Z",
  "networkType": "ethereum",
  "devdoc": {
    "kind": "dev",
    "methods": {},
    "version": 1
  },
  "userdoc": {
    "kind": "user",
    "methods": {
      "buy_energy(address,uint32,uint32,uint64)": {
        "notice": "to be bought. aday Day for which the offer is valid. aprice Price surcharge in millicent/kwh above market"
      }
    },
    "version": 1
  }
}