{
  "contractName": "Energy",
  "abi": [
    {
      "inputs": [],
      "stateMutability": "nonpayable",
      "type": "constructor"
    },
    {
      "anonymous": false,
      "inputs": [
        {
          "indexed": true,
          "internalType": "address",
          "name": "producer",
          "type": "address"
        },
        {
          "indexed": true,
          "internalType": "uint32",
          "name": "day",
          "type": "uint32"
        },
        {
          "indexed": true,
          "internalType": "uint32",
          "name": "price",
          "type": "uint32"
        },
        {
          "indexed": false,
          "internalType": "uint64",
          "name": "energy",
          "type": "uint64"
        }
      ],
      "name": "BidMade",
      "type": "event"
    },
    {
      "anonymous": false,
      "inputs": [
        {
          "indexed": true,
          "internalType": "address",
          "name": "producer",
          "type": "address"
        },
        {
          "indexed": true,
          "internalType": "uint32",
          "name": "day",
          "type": "uint32"
        },
        {
          "indexed": true,
          "internalType": "uint32",
          "name": "price",
          "type": "uint32"
        },
        {
          "indexed": false,
          "internalType": "uint64",
          "name": "energy",
          "type": "uint64"
        }
      ],
      "name": "BidRevoked",
      "type": "event"
    },
    {
      "anonymous": false,
      "inputs": [
        {
          "indexed": true,
          "internalType": "address",
          "name": "producer",
          "type": "address"
        },
        {
          "indexed": true,
          "internalType": "uint32",
          "name": "day",
          "type": "uint32"
        },
        {
          "indexed": false,
          "internalType": "uint32",
          "name": "price",
          "type": "uint32"
        },
        {
          "indexed": false,
          "internalType": "uint64",
          "name": "energy",
          "type": "uint64"
        },
        {
          "indexed": true,
          "internalType": "uint32",
          "name": "userID",
          "type": "uint32"
        }
      ],
      "name": "Deal",
      "type": "event"
    },
    {
      "anonymous": false,
      "inputs": [
        {
          "indexed": true,
          "internalType": "address",
          "name": "producer",
          "type": "address"
        },
        {
          "indexed": true,
          "internalType": "uint32",
          "name": "day",
          "type": "uint32"
        },
        {
          "indexed": false,
          "internalType": "uint32",
          "name": "price",
          "type": "uint32"
        },
        {
          "indexed": false,
          "internalType": "uint64",
          "name": "energy",
          "type": "uint64"
        },
        {
          "indexed": true,
          "internalType": "uint32",
          "name": "userID",
          "type": "uint32"
        }
      ],
      "name": "DealRevoked",
      "type": "event"
    },
    {
      "anonymous": false,
      "inputs": [
        {
          "indexed": true,
          "internalType": "address",
          "name": "consumer",
          "type": "address"
        }
      ],
      "name": "consumerDeregistered",
      "type": "event"
    },
    {
      "anonymous": false,
      "inputs": [
        {
          "indexed": true,
          "internalType": "address",
          "name": "consumer",
          "type": "address"
        }
      ],
      "name": "consumerRegistered",
      "type": "event"
    },
    {
      "anonymous": false,
      "inputs": [
        {
          "indexed": true,
          "internalType": "address",
          "name": "producer",
          "type": "address"
        }
      ],
      "name": "producerDeregistered",
      "type": "event"
    },
    {
      "anonymous": false,
      "inputs": [
        {
          "indexed": true,
          "internalType": "address",
          "name": "producer",
          "type": "address"
        }
      ],
      "name": "producerRegistered",
      "type": "event"
    },
    {
      "inputs": [
        {
          "internalType": "uint256",
          "name": "",
          "type": "uint256"
        }
      ],
      "name": "asks",
      "outputs": [
        {
          "internalType": "address",
          "name": "producer",
          "type": "address"
        },
        {
          "internalType": "uint32",
          "name": "day",
          "type": "uint32"
        },
        {
          "internalType": "uint32",
          "name": "price",
          "type": "uint32"
        },
        {
          "internalType": "uint64",
          "name": "energy",
          "type": "uint64"
        },
        {
          "internalType": "uint32",
          "name": "userID",
          "type": "uint32"
        },
        {
          "internalType": "uint64",
          "name": "timestamp",
          "type": "uint64"
        }
      ],
      "stateMutability": "view",
      "type": "function",
      "constant": true
    },
    {
      "inputs": [
        {
          "internalType": "uint32",
          "name": "",
          "type": "uint32"
        }
      ],
      "name": "asksIndex",
      "outputs": [
        {
          "internalType": "uint256",
          "name": "",
          "type": "uint256"
        }
      ],
      "stateMutability": "view",
      "type": "function",
      "constant": true
    },
    {
      "inputs": [
        {
          "internalType": "address",
          "name": "",
          "type": "address"
        }
      ],
      "name": "consumers",
      "outputs": [
        {
          "internalType": "uint32",
          "name": "",
          "type": "uint32"
        }
      ],
      "stateMutability": "view",
      "type": "function",
      "constant": true
    },
    {
      "inputs": [
        {
          "internalType": "address",
          "name": "",
          "type": "address"
        }
      ],
      "name": "producers",
      "outputs": [
        {
          "internalType": "uint256",
          "name": "",
          "type": "uint256"
        }
      ],
      "stateMutability": "view",
      "type": "function",
      "constant": true
    },
    {
      "inputs": [
        {
          "internalType": "address",
          "name": "aconsumer",
          "type": "address"
        },
        {
          "internalType": "uint32",
          "name": "auserID",
          "type": "uint32"
        }
      ],
      "name": "registerConsumer",
      "outputs": [],
      "stateMutability": "nonpayable",
      "type": "function"
    },
    {
      "inputs": [
        {
          "internalType": "address",
          "name": "bproducer",
          "type": "address"
        },
        {
          "internalType": "uint256",
          "name": "buserID",
          "type": "uint256"
        }
      ],
      "name": "registerProducer",
      "outputs": [],
      "stateMutability": "nonpayable",
      "type": "function"
    },
    {
      "inputs": [
        {
          "internalType": "address",
          "name": "bproducer",
          "type": "address"
        }
      ],
      "name": "deregisterProducer",
      "outputs": [],
      "stateMutability": "nonpayable",
      "type": "function"
    },
    {
      "inputs": [
        {
          "internalType": "uint32",
          "name": "aday",
          "type": "uint32"
        },
        {
          "internalType": "uint32",
          "name": "apriceMax",
          "type": "uint32"
        },
        {
          "internalType": "uint32",
          "name": "apriceMin",
          "type": "uint32"
        },
        {
          "internalType": "uint64",
          "name": "amaxenergy",
          "type": "uint64"
        },
        {
          "internalType": "uint64",
          "name": "aminenergy",
          "type": "uint64"
        },
        {
          "internalType": "uint64",
          "name": "atimestamp",
          "type": "uint64"
        }
      ],
      "name": "offer_energy",
      "outputs": [],
      "stateMutability": "nonpayable",
      "type": "function"
    },
    {
      "inputs": [
        {
          "internalType": "uint256",
          "name": "idx",
          "type": "uint256"
        }
      ],
      "name": "showBids",
      "outputs": [
        {
          "internalType": "address",
          "name": "producer",
          "type": "address"
        },
        {
          "internalType": "uint32",
          "name": "day",
          "type": "uint32"
        },
        {
          "internalType": "uint32",
          "name": "maxprice",
          "type": "uint32"
        },
        {
          "internalType": "uint64",
          "name": "energy",
          "type": "uint64"
        },
        {
          "internalType": "uint64",
          "name": "timestamp",
          "type": "uint64"
        }
      ],
      "stateMutability": "view",
      "type": "function",
      "constant": true
    },
    {
      "inputs": [
        {
          "internalType": "address",
          "name": "aproducer",
          "type": "address"
        },
        {
          "internalType": "uint32",
          "name": "aday",
          "type": "uint32"
        }
      ],
      "name": "getBidByProducerAndDay",
      "outputs": [
        {
          "internalType": "address",
          "name": "producer",
          "type": "address"
        },
        {
          "internalType": "uint32",
          "name": "day",
          "type": "uint32"
        },
        {
          "internalType": "uint32",
          "name": "maxprice",
          "type": "uint32"
        },
        {
          "internalType": "uint64",
          "name": "energy",
          "type": "uint64"
        },
        {
          "internalType": "uint64",
          "name": "timestamp",
          "type": "uint64"
        }
      ],
      "stateMutability": "view",
      "type": "function",
      "constant": true
    },
    {
      "inputs": [
        {
          "internalType": "uint32",
          "name": "aday",
          "type": "uint32"
        }
      ],
      "name": "getMinPrice",
      "outputs": [
        {
          "internalType": "uint32",
          "name": "",
          "type": "uint32"
        }
      ],
      "stateMutability": "view",
      "type": "function",
      "constant": true
    },
    {
      "inputs": [],
      "name": "getBidsCount",
      "outputs": [
        {
          "internalType": "uint256",
          "name": "count",
          "type": "uint256"
        }
      ],
      "stateMutability": "view",
      "type": "function",
      "constant": true
    },
    {
      "inputs": [
        {
          "internalType": "address",
          "name": "aproducer",
          "type": "address"
        },
        {
          "internalType": "uint32",
          "name": "aday",
          "type": "uint32"
        },
        {
          "internalType": "uint32",
          "name": "aprice",
          "type": "uint32"
        },
        {
          "internalType": "uint64",
          "name": "aenergy",
          "type": "uint64"
        }
      ],
      "name": "buy_energy",
      "outputs": [],
      "stateMutability": "payable",
      "type": "function",
      "payable": true
    },
    {
      "inputs": [],
      "name": "getAsksCount",
      "outputs": [
        {
          "internalType": "uint256",
          "name": "count",
          "type": "uint256"
        }
      ],
      "stateMutability": "view",
      "type": "function",
      "constant": true
    },
    {
      "inputs": [
        {
          "internalType": "uint32",
          "name": "userID",
          "type": "uint32"
        }
      ],
      "name": "getAskUserID",
      "outputs": [
        {
          "internalType": "address",
          "name": "producer",
          "type": "address"
        },
        {
          "internalType": "uint32",
          "name": "day",
          "type": "uint32"
        },
        {
          "internalType": "uint32",
          "name": "price",
          "type": "uint32"
        },
        {
          "internalType": "uint64",
          "name": "energy",
          "type": "uint64"
        }
      ],
      "stateMutability": "view",
      "type": "function",
      "constant": true
    }
  ],
  "bytecode": "0x608060405234801561001057600080fd5b50336000806101000a81548173ffffffffffffffffffffffffffffffffffffffff021916908373ffffffffffffffffffffffffffffffffffffffff160217905550612071806100606000396000f3fe6080604052600436106100e85760003560e01c8063542900651161008a578063a77674a711610059578063a77674a71461033c578063bbae30c914610358578063ccf5c5cf14610395578063fbf3ebe0146103be576100e8565b8063542900651461029457806363505ae8146102bf5780639ed81bc9146102ea578063a64276b514610313576100e8565b80631c032ebf116100c65780631c032ebf146101ad57806326324eff146101ed57806327c166051461022a57806351f68a5f1461026b576100e8565b80630b0c1493146100ed5780630bf536681461012f57806310663fc81461016c575b600080fd5b3480156100f957600080fd5b50610114600480360381019061010f9190611b17565b6103fb565b60405161012696959493929190611bc7565b60405180910390f35b34801561013b57600080fd5b5061015660048036038101906101519190611c54565b6104bf565b6040516101639190611c81565b60405180910390f35b34801561017857600080fd5b50610193600480360381019061018e9190611b17565b6104e2565b6040516101a4959493929190611c9c565b60405180910390f35b3480156101b957600080fd5b506101d460048036038101906101cf9190611d1b565b610623565b6040516101e49493929190611d48565b60405180910390f35b3480156101f957600080fd5b50610214600480360381019061020f9190611c54565b610796565b6040516102219190611d9c565b60405180910390f35b34801561023657600080fd5b50610251600480360381019061024c9190611db7565b6107ae565b604051610262959493929190611c9c565b60405180910390f35b34801561027757600080fd5b50610292600480360381019061028d9190611df7565b610951565b005b3480156102a057600080fd5b506102a9610a41565b6040516102b69190611d9c565b60405180910390f35b3480156102cb57600080fd5b506102d4610a4e565b6040516102e19190611d9c565b60405180910390f35b3480156102f657600080fd5b50610311600480360381019061030c9190611c54565b610a5b565b005b34801561031f57600080fd5b5061033a60048036038101906103359190611e63565b610b3c565b005b61035660048036038101906103519190611ef0565b61123d565b005b34801561036457600080fd5b5061037f600480360381019061037a9190611d1b565b611303565b60405161038c9190611d9c565b60405180910390f35b3480156103a157600080fd5b506103bc60048036038101906103b79190611db7565b61131b565b005b3480156103ca57600080fd5b506103e560048036038101906103e09190611d1b565b61146f565b6040516103f29190611c81565b60405180910390f35b6004818154811061040b57600080fd5b90600052602060002090600202016000915090508060000160009054906101000a900473ffffffffffffffffffffffffffffffffffffffff16908060000160149054906101000a900463ffffffff16908060000160189054906101000a900463ffffffff16908060010160009054906101000a900467ffffffffffffffff16908060010160089054906101000a900463ffffffff169080600101600c9054906101000a900467ffffffffffffffff16905086565b60016020528060005260406000206000915054906101000a900463ffffffff1681565b6000806000806000600386815481106104fe576104fd611f57565b5b906000526020600020906002020160000160009054906101000a900473ffffffffffffffffffffffffffffffffffffffff166003878154811061054457610543611f57565b5b906000526020600020906002020160000160149054906101000a900463ffffffff166003888154811061057a57610579611f57565b5b906000526020600020906002020160000160189054906101000a900463ffffffff16600389815481106105b0576105af611f57565b5b906000526020600020906002020160010160009054906101000a900467ffffffffffffffff1660038a815481106105ea576105e9611f57565b5b906000526020600020906002020160010160109054906101000a900467ffffffffffffffff169450945094509450945091939590929450565b6000806000806000600660008763ffffffff1663ffffffff1681526020019081526020016000205490508563ffffffff166004828154811061066857610667611f57565b5b906000526020600020906002020160010160089054906101000a900463ffffffff1663ffffffff161461069a57600080fd5b600481815481106106ae576106ad611f57565b5b906000526020600020906002020160000160009054906101000a900473ffffffffffffffffffffffffffffffffffffffff16600482815481106106f4576106f3611f57565b5b906000526020600020906002020160000160149054906101000a900463ffffffff166004838154811061072a57610729611f57565b5b906000526020600020906002020160000160189054906101000a900463ffffffff16600484815481106107605761075f611f57565b5b906000526020600020906002020160010160009054906101000a900467ffffffffffffffff169450945094509450509193509193565b60026020528060005260406000206000915090505481565b600080600080600080600560008973ffffffffffffffffffffffffffffffffffffffff1673ffffffffffffffffffffffffffffffffffffffff16815260200190815260200160002060008863ffffffff1663ffffffff1681526020019081526020016000205490506003818154811061082a57610829611f57565b5b906000526020600020906002020160000160009054906101000a900473ffffffffffffffffffffffffffffffffffffffff16600382815481106108705761086f611f57565b5b906000526020600020906002020160000160149054906101000a900463ffffffff16600383815481106108a6576108a5611f57565b5b906000526020600020906002020160000160189054906101000a900463ffffffff16600384815481106108dc576108db611f57565b5b906000526020600020906002020160010160009054906101000a900467ffffffffffffffff166003858154811061091657610915611f57565b5b906000526020600020906002020160010160109054906101000a900467ffffffffffffffff1695509550955095509550509295509295909350565b60008054906101000a900473ffffffffffffffffffffffffffffffffffffffff1673ffffffffffffffffffffffffffffffffffffffff163373ffffffffffffffffffffffffffffffffffffffff16146109a957600080fd5b8173ffffffffffffffffffffffffffffffffffffffff167f769268709e630d5b24d4c651adeae2d7a75c3dd7c3876275233e21570be22fd460405160405180910390a2600081116109f957600080fd5b80600260008473ffffffffffffffffffffffffffffffffffffffff1673ffffffffffffffffffffffffffffffffffffffff168152602001908152602001600020819055505050565b6000600480549050905090565b6000600380549050905090565b60008054906101000a900473ffffffffffffffffffffffffffffffffffffffff1673ffffffffffffffffffffffffffffffffffffffff163373ffffffffffffffffffffffffffffffffffffffff1614610ab357600080fd5b8073ffffffffffffffffffffffffffffffffffffffff167f0bb6d68f109745f7ae353e3b90fff6fb8245c34cca44f18d9dfa00e4d705fa6460405160405180910390a2600260008273ffffffffffffffffffffffffffffffffffffffff1673ffffffffffffffffffffffffffffffffffffffff1681526020019081526020016000206000905550565b6000600260003373ffffffffffffffffffffffffffffffffffffffff1673ffffffffffffffffffffffffffffffffffffffff1681526020019081526020016000205411610b8857600080fd5b60016103e8610b979190611fb5565b6103e8610ba49190611fb5565b67ffffffffffffffff168267ffffffffffffffff161015610bc457600080fd5b6000600560003373ffffffffffffffffffffffffffffffffffffffff1673ffffffffffffffffffffffffffffffffffffffff16815260200190815260200160002060008863ffffffff1663ffffffff16815260200190815260200160002054905080600380549050118015610ca957503373ffffffffffffffffffffffffffffffffffffffff1660038281548110610c5f57610c5e611f57565b5b906000526020600020906002020160000160009054906101000a900473ffffffffffffffffffffffffffffffffffffffff1673ffffffffffffffffffffffffffffffffffffffff16145b8015610cf557508663ffffffff1660038281548110610ccb57610cca611f57565b5b906000526020600020906002020160000160149054906101000a900463ffffffff1663ffffffff16145b15610e985760038181548110610d0e57610d0d611f57565b5b906000526020600020906002020160010160109054906101000a900467ffffffffffffffff1667ffffffffffffffff168267ffffffffffffffff1611610d5357600080fd5b60038181548110610d6757610d66611f57565b5b906000526020600020906002020160000160189054906101000a900463ffffffff1663ffffffff1660038281548110610da357610da2611f57565b5b906000526020600020906002020160000160149054906101000a900463ffffffff1663ffffffff1660038381548110610ddf57610dde611f57565b5b906000526020600020906002020160000160009054906101000a900473ffffffffffffffffffffffffffffffffffffffff1673ffffffffffffffffffffffffffffffffffffffff167f664a04e305e35425afb90c28227063c0b0b433a97155f2492f415af0bd4fea3460038581548110610e5c57610e5b611f57565b5b906000526020600020906002020160010160009054906101000a900467ffffffffffffffff16604051610e8f9190611ff7565b60405180910390a45b600380549050905080600560003373ffffffffffffffffffffffffffffffffffffffff1673ffffffffffffffffffffffffffffffffffffffff16815260200190815260200160002060008963ffffffff1663ffffffff1681526020019081526020016000208190555060036040518060e001604052803373ffffffffffffffffffffffffffffffffffffffff1681526020018963ffffffff1681526020018863ffffffff1681526020018763ffffffff1681526020018667ffffffffffffffff1681526020018567ffffffffffffffff1681526020018467ffffffffffffffff16815250908060018154018082558091505060019003906000526020600020906002020160009091909190915060008201518160000160006101000a81548173ffffffffffffffffffffffffffffffffffffffff021916908373ffffffffffffffffffffffffffffffffffffffff16021790555060208201518160000160146101000a81548163ffffffff021916908363ffffffff16021790555060408201518160000160186101000a81548163ffffffff021916908363ffffffff160217905550606082015181600001601c6101000a81548163ffffffff021916908363ffffffff16021790555060808201518160010160006101000a81548167ffffffffffffffff021916908367ffffffffffffffff16021790555060a08201518160010160086101000a81548167ffffffffffffffff021916908367ffffffffffffffff16021790555060c08201518160010160106101000a81548167ffffffffffffffff021916908367ffffffffffffffff16021790555050506003818154811061110457611103611f57565b5b906000526020600020906002020160000160189054906101000a900463ffffffff1663ffffffff16600382815481106111405761113f611f57565b5b906000526020600020906002020160000160149054906101000a900463ffffffff1663ffffffff166003838154811061117c5761117b611f57565b5b906000526020600020906002020160000160009054906101000a900473ffffffffffffffffffffffffffffffffffffffff1673ffffffffffffffffffffffffffffffffffffffff167f35c89b54d5468d95ecdd889b5dcd7245be0bee1a5dfbe384adc4e8f547f31fd7600385815481106111f9576111f8611f57565b5b906000526020600020906002020160010160009054906101000a900467ffffffffffffffff1660405161122c9190611ff7565b60405180910390a450505050505050565b6000600160003373ffffffffffffffffffffffffffffffffffffffff1673ffffffffffffffffffffffffffffffffffffffff16815260200190815260200160002060009054906101000a900463ffffffff1663ffffffff161161129f57600080fd5b6112fd84848484600160003373ffffffffffffffffffffffffffffffffffffffff1673ffffffffffffffffffffffffffffffffffffffff16815260200190815260200160002060009054906101000a900463ffffffff16600061155b565b50505050565b60066020528060005260406000206000915090505481565b60008054906101000a900473ffffffffffffffffffffffffffffffffffffffff1673ffffffffffffffffffffffffffffffffffffffff163373ffffffffffffffffffffffffffffffffffffffff161461137357600080fd5b60008163ffffffff16146113c9578173ffffffffffffffffffffffffffffffffffffffff167faba09d491d88bf0ee0f8fc8f0168c0178e7210f18b5f524e052a72f550c4474a60405160405180910390a261140d565b8173ffffffffffffffffffffffffffffffffffffffff167ffa23c8d074a5c45120a1bac6ecf198fd3fa6f45dabe40a18dfa423f69d52c30c60405160405180910390a25b80600160008473ffffffffffffffffffffffffffffffffffffffff1673ffffffffffffffffffffffffffffffffffffffff16815260200190815260200160002060006101000a81548163ffffffff021916908363ffffffff1602179055505050565b600080600260003373ffffffffffffffffffffffffffffffffffffffff1673ffffffffffffffffffffffffffffffffffffffff16815260200190815260200160002054116114bc57600080fd5b6000600560003373ffffffffffffffffffffffffffffffffffffffff1673ffffffffffffffffffffffffffffffffffffffff16815260200190815260200160002060008463ffffffff1663ffffffff1681526020019081526020016000205490506003818154811061153157611530611f57565b5b9060005260206000209060020201600001601c9054906101000a900463ffffffff16915050919050565b6000600560008873ffffffffffffffffffffffffffffffffffffffff1673ffffffffffffffffffffffffffffffffffffffff16815260200190815260200160002060008763ffffffff1663ffffffff1681526020019081526020016000205490508060038054905011801561164057508673ffffffffffffffffffffffffffffffffffffffff16600382815481106115f6576115f5611f57565b5b906000526020600020906002020160000160009054906101000a900473ffffffffffffffffffffffffffffffffffffffff1673ffffffffffffffffffffffffffffffffffffffff16145b801561168c57508563ffffffff166003828154811061166257611661611f57565b5b906000526020600020906002020160000160149054906101000a900463ffffffff1663ffffffff16145b15611a7c578463ffffffff16600382815481106116ac576116ab611f57565b5b906000526020600020906002020160000160189054906101000a900463ffffffff1663ffffffff161015801561172357508463ffffffff16600382815481106116f8576116f7611f57565b5b9060005260206000209060020201600001601c9054906101000a900463ffffffff1663ffffffff1611155b61172c57600080fd5b8367ffffffffffffffff166003828154811061174b5761174a611f57565b5b906000526020600020906002020160010160009054906101000a900467ffffffffffffffff1667ffffffffffffffff16101580156117ce57508367ffffffffffffffff16600382815481106117a3576117a2611f57565b5b9060005260206000209060020201600001601c9054906101000a900463ffffffff1663ffffffff1611155b6117d757600080fd5b600480549050600660008563ffffffff1663ffffffff1681526020019081526020016000208190555060046040518060c001604052808973ffffffffffffffffffffffffffffffffffffffff1681526020018863ffffffff1681526020018763ffffffff1681526020018667ffffffffffffffff1681526020018563ffffffff1681526020018467ffffffffffffffff16815250908060018154018082558091505060019003906000526020600020906002020160009091909190915060008201518160000160006101000a81548173ffffffffffffffffffffffffffffffffffffffff021916908373ffffffffffffffffffffffffffffffffffffffff16021790555060208201518160000160146101000a81548163ffffffff021916908363ffffffff16021790555060408201518160000160186101000a81548163ffffffff021916908363ffffffff16021790555060608201518160010160006101000a81548167ffffffffffffffff021916908367ffffffffffffffff16021790555060808201518160010160086101000a81548163ffffffff021916908363ffffffff16021790555060a082015181600101600c6101000a81548167ffffffffffffffff021916908367ffffffffffffffff16021790555050508263ffffffff168663ffffffff168873ffffffffffffffffffffffffffffffffffffffff167f1d809c14ce26d314cb611c6eb2d07dcbce4c1a76cfea828af40737b78dcb60708888604051611a06929190612012565b60405180910390a4611a1787611a8a565b600560008873ffffffffffffffffffffffffffffffffffffffff1673ffffffffffffffffffffffffffffffffffffffff16815260200190815260200160002060008763ffffffff1663ffffffff16815260200190815260200160002060009055611a81565b600080fd5b50505050505050565b8073ffffffffffffffffffffffffffffffffffffffff166108fc671bc16d674ec800009081150290604051600060405180830381858888f19350505050158015611ad8573d6000803e3d6000fd5b5050565b600080fd5b6000819050919050565b611af481611ae1565b8114611aff57600080fd5b50565b600081359050611b1181611aeb565b92915050565b600060208284031215611b2d57611b2c611adc565b5b6000611b3b84828501611b02565b91505092915050565b600073ffffffffffffffffffffffffffffffffffffffff82169050919050565b6000611b6f82611b44565b9050919050565b611b7f81611b64565b82525050565b600063ffffffff82169050919050565b611b9e81611b85565b82525050565b600067ffffffffffffffff82169050919050565b611bc181611ba4565b82525050565b600060c082019050611bdc6000830189611b76565b611be96020830188611b95565b611bf66040830187611b95565b611c036060830186611bb8565b611c106080830185611b95565b611c1d60a0830184611bb8565b979650505050505050565b611c3181611b64565b8114611c3c57600080fd5b50565b600081359050611c4e81611c28565b92915050565b600060208284031215611c6a57611c69611adc565b5b6000611c7884828501611c3f565b91505092915050565b6000602082019050611c966000830184611b95565b92915050565b600060a082019050611cb16000830188611b76565b611cbe6020830187611b95565b611ccb6040830186611b95565b611cd86060830185611bb8565b611ce56080830184611bb8565b9695505050505050565b611cf881611b85565b8114611d0357600080fd5b50565b600081359050611d1581611cef565b92915050565b600060208284031215611d3157611d30611adc565b5b6000611d3f84828501611d06565b91505092915050565b6000608082019050611d5d6000830187611b76565b611d6a6020830186611b95565b611d776040830185611b95565b611d846060830184611bb8565b95945050505050565b611d9681611ae1565b82525050565b6000602082019050611db16000830184611d8d565b92915050565b60008060408385031215611dce57611dcd611adc565b5b6000611ddc85828601611c3f565b9250506020611ded85828601611d06565b9150509250929050565b60008060408385031215611e0e57611e0d611adc565b5b6000611e1c85828601611c3f565b9250506020611e2d85828601611b02565b9150509250929050565b611e4081611ba4565b8114611e4b57600080fd5b50565b600081359050611e5d81611e37565b92915050565b60008060008060008060c08789031215611e8057611e7f611adc565b5b6000611e8e89828a01611d06565b9650506020611e9f89828a01611d06565b9550506040611eb089828a01611d06565b9450506060611ec189828a01611e4e565b9350506080611ed289828a01611e4e565b92505060a0611ee389828a01611e4e565b9150509295509295509295565b60008060008060808587031215611f0a57611f09611adc565b5b6000611f1887828801611c3f565b9450506020611f2987828801611d06565b9350506040611f3a87828801611d06565b9250506060611f4b87828801611e4e565b91505092959194509250565b7f4e487b7100000000000000000000000000000000000000000000000000000000600052603260045260246000fd5b7f4e487b7100000000000000000000000000000000000000000000000000000000600052601160045260246000fd5b6000611fc082611ba4565b9150611fcb83611ba4565b92508167ffffffffffffffff0483118215151615611fec57611feb611f86565b5b828202905092915050565b600060208201905061200c6000830184611bb8565b92915050565b60006040820190506120276000830185611b95565b6120346020830184611bb8565b939250505056fea264697066735822122086257041fa613127ec5e12fe1914536b978bedb935c59aed51b2e12e6ed8d86a64736f6c634300080c0033",
  "immutableReferences": {},
  "source": "//SPDX-License-Identifier:GPL-3.0\r\npragma solidity >=0.8.12;\r\n\r\ncontract Energy {\r\nconstructor() { owner = msg. sender; }\r\naddress owner;\r\nmodifier onlyOwner {\r\n\trequire(msg.sender == owner);\r\n\t_;\r\n\t}\r\n\r\nevent consumerRegistered(address indexed consumer);\r\nevent consumerDeregistered (address indexed consumer);\r\n\r\n// map address to userID\r\nmapping(address => uint32) public consumers;\r\n\r\nmodifier onlyRegisteredConsumers {\r\nrequire (consumers[msg. sender] > 0);\r\n_;\r\n}\r\n//I Allowed the owner of the address aconsumer.address()\r\n//to make transactions on behalf of user id \"auserID*\r\n//Register address aconsumer to belong to userID\r\n//auserID. Addresses can be delisted (\"unregistered\") by \r\n//setting the userID auserID to zero.\r\nfunction registerConsumer (address aconsumer, uint32 auserID) onlyOwner external {\r\nif (auserID != 0) {\r\nemit consumerRegistered(aconsumer);\r\n} else {\r\nemit consumerDeregistered (aconsumer);\r\n}\r\nconsumers [aconsumer] = auserID;\r\n}\r\n\r\n// A contract that allows producer addresses to be registered.\r\n\r\nevent producerRegistered(address indexed producer);//44\r\nevent producerDeregistered (address indexed producer);\r\n//map address to producerID \"is a registered producer\" \r\nmapping(address => uint) public producers;////////////\r\nmodifier onlyRegisteredProducers {\r\nrequire (producers[msg. sender]>0);\r\n_;\r\n}\r\n//// @notice Allow the owner of address aproducer.(address) to\r\n//act as a producer (by offering energy).\r\nfunction registerProducer(address bproducer,uint buserID) onlyOwner external {\r\nemit producerRegistered(bproducer);\r\nrequire(buserID>0);//////////////\r\nproducers [bproducer] = buserID;///////////\r\n////@note ID can not be zero\r\n}\r\n\r\n////@notice Cease alLowing the owner of address\r\n//aproducer. Address()' to act as a producer (by offering energy).\r\nfunction deregisterProducer (address bproducer) onlyOwner external {\r\nemit producerDeregistered(bproducer);\r\ndelete(producers[bproducer]);////////////\r\n}\r\n\r\n\r\n\r\nevent BidMade(address indexed producer, uint32 indexed day, uint32 indexed price, uint64 energy); \r\nevent BidRevoked (address indexed producer, uint32 indexed day, uint32 indexed price, uint64 energy);\r\nevent Deal (address indexed producer, uint32 indexed day, uint32 price, uint64 energy, uint32 indexed userID);\r\nevent DealRevoked (address indexed producer, uint32 indexed day, uint32 price, uint64 energy, uint32 indexed userID); //77\r\n\r\n//78\r\nuint64 constant mWh = 1;\r\nuint64 constant Wh = 1000*mWh;\r\nuint64 constant kWh = 1000 * Wh;\r\nuint64 constant MWh = 1000 * kWh;\r\nuint64 constant GWh = 1000 * MWh;\r\nuint64 constant TWh = 1000 * GWh;\r\nuint64 constant maxEnergy = 18446 * GWh;\r\n\r\nstruct Bid {\r\n    //producer's public key\r\n    address producer;\r\n    \r\n    //day for which the offer is valid\r\n    uint32 day;\r\n\r\n     //price vs market price\r\n     uint32 maxprice;\r\n     uint32 minprice;\r\n\r\n     //energy to sell\r\n     uint64 maxenergy;\r\n     uint64 minenergy;\r\n\r\n     //timestamp for when the offer was submitted\r\n     uint64 timestamp;\r\n}\r\n\r\nstruct Ask {\r\n    address producer;\r\n    uint32 day; \r\n    uint32 price; \r\n    uint64 energy; \r\n    uint32 userID; \r\n    uint64 timestamp;\r\n}\r\n\r\n//bids (for energy: offering energy for sale)\r\nBid[] private bids;\r\n\r\n//asks (for energy: demanding energy to buy)\r\nAsk[] public asks;\r\n\r\n//map (address, day) to index into bids \r\n//maps a producer's public key and the day for which the offer is valid \r\n//to the index of the corresponding Bid object in the bids array.\r\nmapping (address => mapping(uint32 => uint)) private bidsIndex;\r\n\r\n//map (userid) to index into asks [last take written]\r\n//maps a user ID to the index of the corresponding Ask object in the asks array.\r\nmapping (uint32 => uint) public asksIndex;\r\n\r\n//aday Day for which the offer is valid.\r\n//aprice price surcharge in millicent/kwh above market price\r\n//aenergy Energy to be offered in mwh\r\n//atimestamp UNIX time (seconds since 1970) in nanoseconds\r\nfunction offer_energy (uint32 aday, uint32 apriceMax, uint32 apriceMin, uint64 amaxenergy, uint64 aminenergy, uint64 atimestamp) onlyRegisteredProducers external {\r\n//require a minimum offer of 1 kWh\r\nrequire (aminenergy >= kWh);\r\n\r\nuint idx = bidsIndex[msg.sender][aday];\r\n//idx is either 0 or such that bids[idx] has the right producer and day (or both 0 and...) \r\n\r\n//if the bids array's length is greater than index number and the address at that index is a producer\r\n//and the day the address bid \r\nif ((bids.length > idx) && (bids[idx].producer == msg.sender) && (bids[idx].day == aday))\r\n{\r\n//we will only let newer timestamps affect the stored data i.e. unix timestamp\r\nrequire(atimestamp > bids[idx].timestamp);\r\nemit BidRevoked(bids[idx].producer, bids[idx].day, bids[idx].maxprice, bids[idx].maxenergy);\r\n}\r\n// create entry with new index idx for (msg. sender, aday)\r\nidx = bids.length;////by this the mapping index starts from 1 not zero\r\nbidsIndex[msg.sender][aday] = idx;\r\nbids.push(Bid({\r\n    producer: msg.sender, \r\n    day: aday, \r\n    maxprice: apriceMax,\r\n    minprice: apriceMin,\r\n    minenergy: aminenergy,\r\n    maxenergy: amaxenergy, \r\n    timestamp: atimestamp\r\n}));\r\nemit BidMade(bids[idx].producer, bids[idx].day, bids[idx].maxprice, bids[idx].maxenergy) ;\r\n}\r\n\r\n//can see the bids by giving the index number of the bids array\r\nfunction showBids(uint idx) public view returns (address producer,uint32 day,uint32 maxprice,uint64 energy,uint64 timestamp){\r\n    return (bids[idx].producer, bids[idx].day, bids[idx].maxprice, bids[idx].maxenergy, bids[idx].timestamp) ;\r\n}\r\n\r\n//can get the bids by giving the address and day\r\n// Anyone call this function, he'll retrieve all data without minimum price value.\r\nfunction getBidByProducerAndDay(address aproducer, uint32 aday) external view returns(address producer,uint32 day,uint32 maxprice,uint64 energy,uint64 timestamp) {\r\n    uint idx = bidsIndex[aproducer][aday];\r\n    return (bids[idx].producer, bids[idx].day, bids[idx].maxprice, bids[idx].maxenergy, bids[idx].timestamp) ;\r\n}\r\n\r\n//the minimum value of any bid can be seen by a producer\r\n// Restrict access only producer to access the minimum price of a specific address in a mapping\r\nfunction getMinPrice(uint32 aday) onlyRegisteredProducers external view returns(uint32) {\r\n    uint idx = bidsIndex[msg.sender][aday];\r\n    return (bids[idx].minprice);\r\n}\r\n\r\nfunction getBidsCount () external view returns (uint count) {\r\nreturn bids.length;\r\n}\r\n\r\n/////////////////\r\n// called by the user id provided by the owner and called by owner on behalf pf consumer\r\n// function buy_energy (address aproducer, uint32 aday, uint32 aprice, uint64 aenergy, uint32 auserID, uint64 atimestamp) onlyOwner external{\r\n// buy_energy_core(aproducer, aday, aprice, aenergy, auserID, atimestamp);\r\n// }\r\n////////////////\r\n\r\n//// aproducer Address of the producer offering the energy\r\n///to be bought.\r\n///aday Day for which the offer is valid.\r\n/// aprice Price surcharge in millicent/kwh above market\r\n////price\r\n////aenergy Energy to be offered in mwh\r\n\r\n//called by the id that is got from the consumers map and called by the consumer itself\r\nfunction buy_energy (address aproducer, uint32 aday, uint32 aprice, uint64 aenergy) onlyRegisteredConsumers external payable {\r\nbuy_energy_core(aproducer, aday, aprice, aenergy, consumers[msg. sender], 0);\r\n}\r\n\r\nfunction buy_energy_core(address aproducer, uint32 aday, uint32 aprice, uint64 aenergy, uint32 auserID, uint64 atimestamp) internal {\r\n//find offer by producer (aproducer) for day (aday), or zero\r\nuint idx = bidsIndex[aproducer][aday];\r\n\r\n//if the offer exists...\r\nif ((bids.length > idx) && (bids [idx].producer == aproducer) && (bids [idx].day == aday)) {\r\n//and has the right price...\r\nrequire(bids[idx].maxprice >=aprice && bids[idx].minprice<=aprice);\r\nrequire(bids[idx].maxenergy >=aenergy && bids[idx].minprice<=aenergy);\r\n\r\n// todo: prevent overwriting a later choice..\r\n\r\n//...then record the customer's choice\r\nasksIndex[auserID] = asks.length;//by this the mapping index starts from 1 not zero\r\nasks.push(Ask({\r\nproducer: aproducer, \r\nday: aday, \r\nprice: aprice, \r\nenergy: aenergy, \r\nuserID: auserID,\r\ntimestamp: atimestamp\r\n}));\r\nemit Deal (aproducer, aday, aprice, aenergy, auserID);\r\n///////////////\r\n// address payable payableRecipient = payable(aproducer);\r\n// payable(payableRecipient).transfer(10);\r\nsendEthUser(aproducer);\r\n//////////////////////\r\ndelete(bidsIndex[aproducer][aday]);\r\n} else {\r\n//the offer does not exist\r\nrevert();\r\n}\r\n}\r\n\r\nfunction sendEthUser(address _user) private {\r\n       payable(_user).transfer(2000000000000000000);\r\n    }\r\n\r\nfunction getAsksCount () external view returns (uint count) {\r\nreturn asks.length;\r\n}\r\n\r\nfunction getAskUserID(uint32 userID) external view returns(address producer, uint32 day, uint32 price, uint64 energy) {\r\nuint idx = asksIndex[userID];\r\nrequire(asks[idx].userID == userID);\r\nreturn (asks[idx].producer, asks[idx].day, asks[idx].price, asks[idx].energy);\r\n}\r\n\r\n}",
  "sourcePath": "C:\\Users\\Rahul PC\\Desktop\\Thesis\\Energy Trading using BCn\\Project8\\practice201\\contracts\\Energy.sol",
  "compiler": {
    "name": "solc",
    "version": "0.8.12+commit.f00d7308.Emscripten.clang"
  },
  "schemaVersion": "3.4.14",
  "updatedAt": "2023-05-25T12:21:14.648Z",
  "networkType": "ethereum",
  "devdoc": {
    "kind": "dev",
    "methods": {},
    "version": 1
  },
  "userdoc": {
    "kind": "user",
    "methods": {
      "buy_energy(address,uint32,uint32,uint64)": {
        "notice": "to be bought. aday Day for which the offer is valid. aprice Price surcharge in millicent/kwh above market"
      }
    },
    "version": 1
  }
}